:04000000D6EF52F0F5
:10A2500035EC51F0C580120035EC51F0C584120088
:10A2600035EC51F002C0C9FF1200C7B4FED7C5CF0C
:10A2700001F01F0E0116D8B41200F7D7036E8C94AC
:10A280000350F6EC53F0C80E00D0E82EFDD71200B4
:10A29000036E8C840350F6EC53F0C80E00D0E82E09
:10A2A000FDD71200016EA6B2FED701C0A9FFA69E7F
:10A2B000A69CA680A8501200056E05C006F00650A8
:10A2C000D8B412000444E846FC0B10093EEC51F0EF
:10A2D0000606F5D7056E05C006F00650D8B4120084
:10A2E0000444E846FC0B18093EEC51F00606F5D78D
:10A2F0007F0E016E000E026E010E036ED4EC54F060
:10A30000010E03EC56F0D0C396F21200036E000E5D
:10A31000026E3A0E036005D02F0E036402D0010EC8
:10A32000026E02C001F001301200076E07C0B7F2E2
:10A3300001C0B8F202C0B9F203C0BAF204C0BBF265
:10A3400005C0BCF206C0BDF21200026E35EC51F041
:10A35000C58635EC51F0C9CF03F035EC51F002B0B1
:10A3600002D0C59A01D0C58AC58803501200015099
:10A370000302F3CF05F0F4CF06F001500402F350CE
:10A38000062602500302F350062605C001F006C05F
:10A3900002F01200026EA6B2FED7A68402C0A9FF88
:10A3A00001C0A8FFA69EA69CF29E550EA76EAA0EFF
:10A3B000A76EA682F28EA6B2FED7A6941200000E59
:10A3C000056E000E046E000E076ECC0E066E07BE04
:10A3D0001200065052EC51F0036E0350046E056AF1
:10A3E00004C001F00650290FCAEC51F00606D8A0AF
:10A3F0000706EDD706500710D8A40BD0420E7F6E8B
:10A400007F0E016E000E026E010E036ED4EC54F04E
:10A41000120006040710D8A41200430E7F6E7F0EB0
:10A42000016E000E026E010E036ED4EC54F01200A9
:10A430000A6E800E3EEC51F0410E086EEE0EE82ED4
:10A44000FED7082EFCD700D0000E096E04D0C00E37
:10A450003EEC51F0092A0750095CD8A0F8D70A5001
:10A46000D8B41200010E046E0A505CEC51F01200D8
:10A470000A500B10D8B418D0010E0C6E04D0D8902E
:10A480000A360B360C2A0BAEFAD70A50085C0B5072
:10A490000958D8A004D00A50085E0B50095AD89029
:10A4A0000B320A320C2EF1D708C008F009C009F0AF
:10A4B0001200C30E046ECD0EE82EFED7042EFCD77C
:10A4C00000F0330E3EEC51F0320E3EEC51F0280E0F
:10A4D0003EEC51F00F0E3EEC51F0060E3EEC51F00A
:10A4E000010E3EEC51F0C30E046ECD0EE82EFED7E9
:10A4F000042EFCD700F00F0E3EEC51F01200000EBF
:10A50000066E000E056E03500410D8B41CD0010E68
:10A51000076E04D0D89003360436072A04AEFAD763
:10A52000D890053606360350015C04500258D8A076
:10A5300005D00350015E0450025A0580D8900432C1
:10A540000332072EEDD705C001F006C002F012005D
:10A55000C69A94869488800EC76E280EC66E000E2A
:10A56000C56E000E016E5A0E026E620E036E020E72
:10A57000046E0EC012F00FC013F010C014F011C022
:10A5800015F0020ED8901236133614361536E82E12
:10A59000F9D712C005F013C006F014C007F015C0BB
:10A5A00008F073EC53F00104C86E1200730EF66EDF
:10A5B000A80EF76E000EF86E02EE00F010EE97F0A7
:10A5C0000900F5CFEEFFE550E150FAE1720EF66EAC
:10A5D000A80EF76E000EF86E0900F5CF7FF004EEBE
:10A5E00000F0E00EEE6AE806FDE103EE00F0E00E9A
:10A5F000EE6AE806FDE102EE97F0500EEE6AE8061C
:10A60000FDE100015EEF66F0000E0A6E000E096EBD
:10A61000000E0A6E000E096E0ABE06D00A5025E131
:10A62000040E095CD8B021D0D8900934D96E0A3410
:10A63000DA6E0350D9260450DA22D8900934E16E3C
:10A640000A34E26E0150E1260250E222DE50E618A2
:10A6500004E1DE50E618D8B405D0000E026E000EFC
:10A66000016E1200094A0A2AD7D7000E026E010EA7
:10A67000016E1200100E0E6E270E0F6E000E106E81
:10A68000000E116EA8EC52F0F29E28EC51F0000E74
:10A69000036ED00E026E30EC51F0000E036E000E11
:10A6A000026E30EC51F0000E186E000E176E18BEE0
:10A6B00006D0185014E1070E175CD8B010D0B70EB2
:10A6C0001724D96E020E1820DA6EDF50166E16505F
:10A6D000026E036A30EC51F0174A182AE8D72CECC6
:10A6E00051F0F28E1200000E096E000E0A6E000E7E
:10A6F0000B6E000E0C6E0550061007100810D8B433
:10A700002AD0010E0D6E06D0D890053606360736D3
:10A7100008360D2A08AEF8D7D89009360A360B3617
:10A720000C360550015C065002580750035808507B
:10A730000458D8A009D00550015E0650025A0750AF
:10A74000035A0850045A0980D8900832073206325A
:10A7500005320D2EE1D709C001F00AC002F00BC08E
:10A7600003F00CC004F01200000E016E5A0E026ECF
:10A77000620E036E020E046E0FC013F010C014F0D0
:10A7800011C015F012C016F0060ED890133614360C
:10A7900015361636E82EF9D713C005F014C006F0AA
:10A7A00015C007F016C008F024EC55F00104AF6E98
:10A7B000AC9CAC98AC8AAB9CAB88020120EE08F054
:10A7C0009451D9269551DA22010EDF6E20EE09F060
:10A7D0009451D9269551DA22010EDF6ED00EDC6F2E
:10A7E000030EDD6F949C948EAB8E1200026E0250AD
:10A7F000F00B016E8C500F0B8C6E01508C108C6E18
:10A80000000EF2BE010E0201D66FF29E8C86530E30
:10A81000E82EFED700F08C96C80E00D0E82EFDD7AB
:10A820000201D6B102D0F29E01D0F28E0238F00BB6
:10A83000026E0250F00B016E8C500F0B8C6E0150AB
:10A840008C108C6E000EF2BE010E0201D66FF29ECD
:10A850008C86530EE82EFED700F08C96C80E00D0E2
:10A86000E82EFDD70201D6B102D0F29E01D0F28EC1
:10A870001200300200030003000300010003000384
:10A8800000030001000200030003000100020002B7
:10A8900000030001000100020003000200030003A6
:10A8A000000000020002000300000001000200039B
:10A8B000000000010003000300000001000200028C
:10A8C000000000010001000300000001000100027F
:10A8D000000000020003000000000001000300006F
:10A8E0000000000100020000000000030000000062
:10A8F0000000000200000000000000010000000055
:10A900000000004D4D4D00D80230000E106E000EBC
:10A910000F6E02D00F4A102A0FC001F010C002F0D3
:10A92000000E046E3C0E036EB7EC51F001C007F050
:10A9300002C008F0000E08BEFF0E096E0A6E071E68
:10A94000081E091E0A1E072A000E082209220A22D2
:10A950000201C45107240B6EC55108200C6EC6516C
:10A9600009200D6EC7510A200E6E0EAED3D70F060A
:10A97000D8A010060FC0D4F210C0D5F20FC001F05D
:10A9800010C002F0000E046E3C0E036EB7EC51F0E6
:10A99000011E021E014A022A0201C4510124D26F83
:10A9A000C5510220D36F1200020120EE08F094512D
:10A9B000D9269551DA22DF50D8B4F6D720EE08F028
:10A9C0009451D9269551DA22000EDF6E000E056EE5
:10A9D000AC8A410E046EEE0EE82EFED7042EFCD794
:10A9E00000D024D0ACB202D0010E01D0000E046E13
:10A9F0009EB802D0010E01D0000E0410F3E100F069
:10AA0000000EF2BE010E0201D76FF29E0550010D3D
:10AA1000F3500124D96EF4500220DA6EDF50AD6E8F
:10AA2000D7B102D0F29E01D0F28E052A0350055C08
:10AA3000D8A0D8D7020120EE08F09451D92695511C
:10AA4000DA22010EDF6E1200000E0A6E08AE0AD086
:10AA5000081E071E061E056C000E0622072208228D
:10AA6000010E0A6E04AE0AD0041E031E021E016C03
:10AA7000000E022203220422010E0A1A000E0B6E9F
:10AA8000000E0C6E000E0D6E000E0E6E05500610C0
:10AA900007100810D8B42AD0010E096E06D0D8903D
:10AAA0000536063607360836092A08AEF8D7D89094
:10AAB0000B360C360D360E360550015C065002582A
:10AAC0000750035808500458D8A009D00550015E1B
:10AAD0000650025A0750035A0850045A0B80D89067
:10AAE0000832073206320532092EE1D70A50D8B4AF
:10AAF00008D00E1E0D1E0C1E0B6C000E0C220D221B
:10AB00000E220BC001F00CC002F00DC003F00EC00D
:10AB100004F0120006500710D8A40BD0340E7F6E3C
:10AB20007F0E016E000E026E010E036ED4EC54F027
:10AB30005ED006040710D8A40BD0350E7F6E7F0EB2
:10AB4000016E000E026E010E036ED4EC54F04FD075
:10AB5000020E06180710D8A40BD0360E7F6E7F0E9B
:10AB6000016E000E026E010E036ED4EC54F03FD065
:10AB7000030E06180710D8A40BD0370E7F6E7F0E79
:10AB8000016E000E026E010E036ED4EC54F02FD055
:10AB9000040E06180710D8A40BD0380E7F6E7F0E57
:10ABA000016E000E026E010E036ED4EC54F01FD045
:10ABB000050E06180710D8A40BD0390E7F6E7F0E35
:10ABC000016E000E026E010E036ED4EC54F00FD035
:10ABD000060E06180710D8A40AD0410E7F6E7F0E0D
:10ABE000016E000E026E010E036ED4EC54F04D0E99
:10ABF000096E190E086E500EE82EFED7082EFCD7EF
:10AC0000092EFAD71200046E020120EE09F09451C9
:10AC1000D9269551DA22DF50D8B4F6D720EE09F0C4
:10AC20009451D9269551DA22000EDF6E000E056E82
:10AC300020EE0AF09451D9269551DA22010EDF6EEA
:10AC400020EE0BF09451D9269551DA22010EDF6ED9
:10AC5000AB88AECF03F043D09EAAFED7ABA409D0F9
:10AC6000020120EE0AF09451D9269551DA22010E04
:10AC700008D0020120EE0AF09451D9269551DA222B
:10AC8000000EDF6E000EF2BE010ED76FF29E055071
:10AC9000010D20EE04F09451D9269551DA22DECF31
:10ACA00001F0DDCF02F0F3500124D96EF450022000
:10ACB000DA6EAECFDFFFD7B102D0F29E01D0F28EB6
:10ACC000ABA203D0AB98AB8809D0020120EE0BF009
:10ACD0009451D9269551DA22000EDF6E052A0450D0
:10ACE000055CD8A0B9D7020120EE09F09451D9260D
:10ACF0009551DA22010EDF6E1200266E26C023F077
:10AD0000310E2618D8A40ED0000E256E050E246E26
:10AD1000000E076E040E066E8AEC55F0000E226ED1
:10AD2000000E23D0320E2618D8A40ED0000E256EA9
:10AD3000060E246E000E076E050E066E8AEC55F0A8
:10AD4000000E226E010E11D0330E2618D8A44BD05F
:10AD5000000E256E070E246E000E076E060E066EA0
:10AD60008AEC55F0000E226E020E216E3CD0C1EC32
:10AD700058F00201C7BF08D0C751C611C5113BE149
:10AD8000AF0EC45DD8B01200230E016E000E026E2D
:10AD9000010E036ED4EC54F0500E7F6E78EC51F03F
:10ADA00002019605D8A411D0D8902134D96E22344E
:10ADB000DA6EBE0ED926020EDA22DE2A000EDD225F
:10ADC000000E256E050E246E03D02406D8A025069D
:10ADD000060E206E130E1F6EAE0EE82EFED71F2E2F
:10ADE000FCD7202EFAD725BE12002550C0E124043E
:10ADF000D8A01200BCD71200000E0A6E000E096E19
:10AE00000ABE06D00A503CE1080E095CD8B038D022
:10AE1000000E086E000E076E08BE06D008502DE129
:10AE2000040E075CD8B029D009C003F00AC004F0B2
:10AE3000D89003360436D89003360436D8900336BB
:10AE40000436600E056E030E066E03500526045090
:10AE50000622D8900734D96E0834DA6E0550D92608
:10AE60000650DA22DF50016E0944E846FC0B072445
:10AE7000CAEC51F0074A082ACFD7094A0A2AC0D794
:10AE8000000E0A6E000E096E0ABE06D00A5016E1C8
:10AE9000040E095CD8B012D0D8900934D96E0A34A7
:10AEA000DA6EAF0ED926020EDA22DF50016E09509B
:10AEB000200FCAEC51F0094A0A2AE6D7D2C201F0A3
:10AEC000240ECAEC51F0D4C201F0250ECAEC51F0A8
:10AED000000E0A6E000E096E0ABE06D00A5016E178
:10AEE000030E095CD8B01200D8900934D96E0A3428
:10AEF000DA6EBE0ED926020EDA22DF50016E09503C
:10AF0000260FCAEC51F0094A0A2AE6D71200000EB1
:10AF10001E6E000E1D6EA00E0E6E860E0F6E010EC2
:10AF2000106E000E116EA8EC52F028EC51F0000EDD
:10AF3000036ED00E026E30EC51F0000E036E000E68
:10AF4000026E30EC51F02CEC51F028EC51F0000E78
:10AF5000036ED10E026E30EC51F0000E1E6E000E2C
:10AF60001D6E1EBE06D01E5011E1060E1D5CD8B02F
:10AF70000DD0B70E1D24D96E020E1E20DA6E000E03
:10AF8000A5EC51F0DF6E1D4A1E2AEBD7010EA5EC91
:10AF900051F00201BD6F2CEC51F0B9C216F00F0E4A
:10AFA00016161650016E026A0E0E046E100E036E17
:10AFB000B7EC51F001C017F002C018F0B8C219F098
:10AFC0000F0E1916B8C21AF01A3A0F0E1A160F0EF3
:10AFD0001A161A500A0D1950F324016E000EF420AF
:10AFE000026E000E046E3C0E036EB7EC51F0015081
:10AFF000172602501822B7C21BF01B3A0F0E1B1661
:10B000000F0E1B161B500A0DF3501726F450182272
:10B01000B7C21CF00F0E1C161C501726000E18226B
:10B0200017C0CCF218C0CDF20201000ECDBFFF0E4A
:10B03000CE6FCF6F1200000E106E000E0F6E000E5E
:10B040000E6E000E0D6E000E0201D16F000ED06F5D
:10B05000000E966F000EE56F000EE46F300E7F6EEF
:10B06000000E106E000E0F6E10BE06D0105050E194
:10B07000100E0F5CD8B04CD0000E0E6E000E0D6E90
:10B080000EBE06D00E5041E1030E0D5CD8B03DD08F
:10B090000FC001F010C002F0000E046E060E036E29
:10B0A000B7EC51F007C009F008C00AF001500926BA
:10B0B00002500A22D8900D34D96E0E34DA6E09503F
:10B0C000D9260A50DA220FC001F010C002F0000E9B
:10B0D000046E060E036EB7EC51F0000E0B6E030EFD
:10B0E0000C6E01500B2602500C22D8900D34E16EEC
:10B0F0000E34E26E0B50E1260C50E222DECFE6FF6A
:10B10000DDCFE5FF0D4A0E2ABBD70F4A102AACD778
:10B11000000E106E000E0F6E10BE06D0105014E11F
:10B12000040E0F5CD8B010D0D8900F34D96E103404
:10B13000DA6EAF0ED926020EDA22000EDE6E000E97
:10B14000DD6E0F4A102AE8D7000E106E000E0F6E4B
:10B1500010BE06D0105014E1030E0F5CD8B01200E0
:10B16000D8900F34D96E1034DA6EBE0ED926020E86
:10B17000DA22000EDE6E000EDD6E0F4A102AE8D7CE
:10B180001200000E1E6E000E1D6EA00E0E6E860EBC
:10B190000F6E010E106E000E116EA8EC52F028EC2E
:10B1A00051F0000E036ED00E026E30EC51F0000E26
:10B1B000036E000E026E30EC51F02CEC51F028ECD6
:10B1C00051F0000E036ED10E026E30EC51F0000E05
:10B1D0001E6E000E1D6E1EBE06D01E5011E1060E24
:10B1E0001D5CD8B00DD0B70E1D24D96E020E1E20E6
:10B1F000DA6E000EA5EC51F0DF6E1D4A1E2AEBD769
:10B20000010EA5EC51F00201BD6F2CEC51F0B9C25A
:10B2100016F00F0E16161650016E026A0E0E046E10
:10B22000100E036EB7EC51F001C017F002C018F019
:10B23000B8C219F00F0E1916B8C21AF01A3A0F0E4A
:10B240001A160F0E1A161A500A0D1950F324016E11
:10B25000000EF420026E000E046E3C0E036EB7EC7E
:10B2600051F00150172602501822B7C21BF01B3AAA
:10B270000F0E1B160F0E1B161B500A0DF350172630
:10B28000F4501822B7C21CF00F0E1C161C501726C3
:10B29000000E182217C0C8F218C0C9F20201000E31
:10B2A000C9BFFF0ECA6FCB6FCCC216F0CDC217F06C
:10B2B000CEC218F0CFC219F0161E171E181E191E86
:10B2C000162A000E172218221922C8511624C46FFC
:10B2D000C9511720C56FCA511820C66FCB5119200C
:10B2E000C76F1200000E2E6E000E2D6E000E306E17
:10B2F000000E2F6E000E2E6E000E2D6E2EBE06D08E
:10B300002E5035E1100E2D5CD8B031D0000E306ECD
:10B31000000E2F6E30BE06D0305026E1030E2F5C9B
:10B32000D8B022D02DC001F02EC002F0000E046E65
:10B33000060E036EB7EC51F0000E2B6E030E2C6E52
:10B3400001502B2602502C22D8902F34D96E303445
:10B35000DA6E2B50D9262C50DA22000EDE6E000E4B
:10B36000DD6E2F4A302AD6D72D4A2E2AC7D728BEBF
:10B3700036D0285003E12704D8A031D0470E7F6E85
:10B380007F0E016E000E026E010E036ED4EC54F0BF
:10B390007A0E2C6EC10E2B6E820EE82EFED72B2E4F
:10B3A000FCD72C2EFAD77A0E2C6EC10E2B6E820E85
:10B3B000E82EFED72B2EFCD72C2EFAD7330E2C6E70
:10B3C000BB0E2B6EE00EE82EFED72B2EFCD72C2EBC
:10B3D000FAD7000E076E000E066EFAEC51F0310E31
:10B3E0007DEC56F00201C7BF0FD0C751C611C51181
:10B3F00004E1AF0EC45DD8A007D0000E076E000EAA
:10B40000066E8AEC55F01200320E7DEC56F0020109
:10B41000C7BF0FD0C751C611C51104E1AF0EC45D3F
:10B42000D8A007D0000E076E000E066E8AEC55F00D
:10B430001200330E7DEC56F00201C7BF0FD0C7518A
:10B44000C611C51104E1AF0EC45DD8A007D0000E2F
:10B45000076E000E066E8AEC55F01200000E076EA5
:10B46000000E066E8AEC55F01200000E106E000EF3
:10B470000F6E000E0E6E000E0D6E0AD1000E0E6ED7
:10B48000000E0D6E000E0201D16F000ED06F0F5036
:10B490001010D8A451D009500724016E0A5008207A
:10B4A000026E000E046E060E036EB7EC51F0000E35
:10B4B0000B6E030E0C6E01500B2602500C22D8901E
:10B4C0000F34D96E1034DA6E0B50D9260C50DA22B4
:10B4D000DECF0DF0DDCF0EF00D500E10D8A420D031
:10B4E000D5D0310E7F6E7F0E016E000E026E010E02
:10B4F000036ED4EC54F0500E7F6E78EC51F00201E4
:10B500009605D8A402D0D04BD12B060E0C6E130E8C
:10B510000B6EAE0EE82EFED70B2EFCD70C2EFAD7F4
:10B520000D500201D05DD151800A0B6E0E50800A81
:10B530000B58D8B0ABD0D5D70F041010D8A451D029
:10B5400009500724016E0A500820026E000E046E96
:10B55000060E036EB7EC51F0000E0B6E030E0C6E70
:10B5600001500B2602500C22D8900F34D96E1034A3
:10B57000DA6E0B50D9260C50DA22DECF0DF0DDCF7B
:10B580000EF00D500E10D8A420D080D0320E7F6E59
:10B590007F0E016E000E026E010E036ED4EC54F0AD
:10B5A000500E7F6E78EC51F002019605D8A402D0BF
:10B5B000D04BD12B060E0C6E130E0B6EAE0EE82E7A
:10B5C000FED70B2EFCD70C2EFAD70D500201D05D02
:10B5D000D151800A0B6E0E50800A0B58D8B056D04D
:10B5E000D5D7020E0F181010D8A450D00950072438
:10B5F000016E0A500820026E000E046E060E036EE5
:10B60000B7EC51F0000E0B6E030E0C6E01500B26C2
:10B6100002500C22D8900F34D96E1034DA6E0B50D1
:10B62000D9260C50DA22DECF0DF0DDCF0EF00D5012
:10B630000E10D8A420D02AD0330E7F6E7F0E016E5C
:10B64000000E026E010E036ED4EC54F0500E7F6EAD
:10B6500078EC51F002019605D8A402D0D04BD12B42
:10B66000060E0C6E130E0B6EAE0EE82EFED70B2ED2
:10B67000FCD70C2EFAD70D500201D05DD151800AB3
:10B680000B6E0E50800A0B58D8A0D6D70F4A102A3E
:10B6900010BEF4D6105004E1030E0F5CD8A0EED615
:10B6A000000E0201D16F000ED06F1A0E0C6E5E0EEE
:10B6B0000B6E6E0EE82EFED70B2EFCD70C2EFAD793
:10B6C00000D01200000E3A6E000E396E000E3E6E73
:10B6D000000E3D6E000E3C6E000E3B6E000E366E90
:10B6E000000E356E000E386E000E376E31C007F05A
:10B6F00032C008F01BEC58F0000E3A6E000E396EA6
:10B700003ABE08D03A5005E1040E395CD8B0FED0FC
:10B7100001D0FCD0000E366E000E356E39C033F00D
:10B720003AC034F0D89033363436D8903336343685
:10B7300033C03BF034C03CF03BC007F03CC008F0E5
:10B7400035C009F036C00AF0B6EC5FF007C037F03C
:10B7500008C038F037503810D8B4D1D0E4C233F034
:10B76000E5C234F0331E341E334A342A39503326AE
:10B770003A503422010E3324086E000E3420096E34
:10B78000E4C20AF0E5C20BF01EEC5EF0010E3924B3
:10B790000201E46F000E3A20E56F354A362A3BC0BD
:10B7A00007F03CC008F035C009F036C00AF0B6EC2E
:10B7B0005FF007C037F008C038F037503810D8B401
:10B7C0009ED0000E076E000E066EFAEC51F07F0E52
:10B7D000346ED40E336E320EE82EFED7332EFCD7E5
:10B7E000342EFAD7000E3E6E000E3D6E3EBE06D0E1
:10B7F0003E5074E1040E3D5CD8B070D03D503B2407
:10B80000016E3E503C20026E000E046E060E036E6A
:10B81000B7EC51F0000E0124D96E030E0220DA6E4F
:10B82000010EDBBE06D0010EDB5041E1DE04D8B0D4
:10B830003ED03D503B24016E3E503C20026E000E37
:10B84000046E060E036EB7EC51F0020E0126000ED8
:10B850000222000E0124D96E030E0220DA6E010EC0
:10B86000DBBE06D0010EDB5022E1DE04D8B01FD0D3
:10B870003D503B24016E3E503C20026E000E046E93
:10B88000060E036EB7EC51F0040E0126000E0222E4
:10B89000000E0124D96E030E0220DA6E010EDBBE0B
:10B8A00016D0010EDB5003E1DE04D8A010D03DC05D
:10B8B00006F03EC007F08AEC55F03BC007F03CC0F4
:10B8C00008F03DC009F03EC00AF035EC5AF03D4AA0
:10B8D0003E2A3EBE93D73E5001E18CD7330E346EE4
:10B8E000BB0E336EE00EE82EFED7332EFCD7342E7F
:10B8F000FAD7000E076E010E066EFAEC51F0394AC7
:10B900003A2A3ABE07D73A5001E1FED6E4C227F000
:10B91000E5C228F031C029F032C02AF072EC59F0AB
:10B92000120023EEB0F010EE13F00F0EDBCFE3FFAA
:10B93000E806FCE2000E286E000E276E28BE06D038
:10B94000285045E1080E275CD8B041D0D890273464
:10B95000D96E2834DA6E130ED926000EDA22000EC4
:10B96000DE6E000EDD6E000E266E000E256E26BE0B
:10B9700006D0265029E1040E255CD8B025D027C07A
:10B9800009F028C00AF0D89009360A36D89009364E
:10B990000A36D89009360A36600E0B6E030E0C6E0E
:10B9A00009500B260A500C22D8902534D96E263423
:10B9B000DA6E0B50D9260C50DA22000EDE6E000E25
:10B9C000DD6E254A262AD3D7274A282AB7D7000E64
:10B9D000286E000E276E28BE08D0285005E1100EF4
:10B9E000275CD8B085D001D083D027C001F028C013
:10B9F00002F0000E046E060E036EB7EC51F001501B
:10BA00000724D96E02500820DA6EDE50DE10D8A46A
:10BA100038D027C001F028C002F0000E046E060ED8
:10BA2000036EB7EC51F007C009F008C00AF00150EE
:10BA3000092602500A22020E0924D96E000E0A209D
:10BA4000DA6EDE50DE10D8A41CD027C001F028C06A
:10BA500002F0000E046E060E036EB7EC51F007C044
:10BA600009F008C00AF00150092602500A22040E0B
:10BA70000924D96E000E0A20DA6EDE50DE10D8B42A
:10BA800030D0000E246E000E236E24BE06D024504B
:10BA900028E1080E235CD8B024D0D8902334D96E86
:10BAA0002434DA6E130ED926000EDA22DE50DE10B0
:10BAB000D8A414D0010E2724096E000E28200A6E87
:10BAC000D8902334D96E2434DA6E130ED926000EA2
:10BAD000DA2209C0DEFF0AC0DDFF03D0234A242A90
:10BAE000D4D7274A282A28BE80D7285001E177D703
:10BAF000000E286E000E276E28BE08D0285005E1E3
:10BB0000080E275CD8B0120001D01200D89027345C
:10BB1000D96E2834DA6E130ED926000EDA22DE50E2
:10BB2000DE10D8B483D0D8902734D96E2834DA6E9A
:10BB3000130ED926000EDA2227C009F028C00AF019
:10BB4000D89009360A36D89009360A36D890093680
:10BB50000A36600E0924E16E030E0A20E26EDECF83
:10BB6000E6FFDDCFE5FF000E266E000E256E26BE39
:10BB700006D026505BE1030E255CD8B057D0D89094
:10BB80002734D96E2834DA6E130ED926000EDA2245
:10BB9000DECF09F0DDCF0AF0FF0E0924016EFF0EA3
:10BBA0000A20026E000E046E060E036EB7EC51F012
:10BBB00007C00BF008C00CF001500B2602500C22FD
:10BBC000D8902534D96E2634DA6E0B50D9260C5015
:10BBD000DA2227C00DF028C00EF0D8900D360E36B0
:10BBE000D8900D360E36D8900D360E3625C00FF093
:10BBF00026C010F0D8900F361036020E0F26000E19
:10BC00001022600E116E030E126E0F50112610508E
:10BC100012220D501124E16E0E501220E26EDECF82
:10BC2000E6FFDDCFE5FF254A262AA1D7274A282AA5
:10BC300028BE6CD7285001E163D7120008C012F06B
:10BC400009C013F0000E116E000E106E09BE5CD11B
:10BC5000095003E10804D8A057D10A500B10D8A40A
:10BC600036D008040910D8A432D0000E076E010E99
:10BC7000066EFAEC51F0460E7F6E7F0E016E000EDE
:10BC8000026E010E036ED4EC54F07A0E0D6EC10EEE
:10BC90000C6E820EE82EFED70C2EFCD70D2EFAD796
:10BCA0007A0E0D6EC10E0C6E820EE82EFED70C2E93
:10BCB000FCD70D2EFAD7330E0D6EBB0E0C6EE00EB8
:10BCC000E82EFED70C2EFCD70D2EFAD712000A5004
:10BCD0000B10D8B409BE77D0095033E1020E085CCE
:10BCE000D8B02FD070D0440E7F6E7F0E016E000E44
:10BCF000026E010E036ED4EC54F01206D8A01306A7
:10BD00007A0E0D6EC10E0C6E820EE82EFED70C2E32
:10BD1000FCD70D2EFAD77A0E0D6EC10E0C6E820E68
:10BD2000E82EFED70C2EFCD70D2EFAD77A0E0D6E0C
:10BD3000C10E0C6E820EE82EFED70C2EFCD70D2EF7
:10BD4000FAD7FF0E0C6EFF0E0D6E12C00EF013C070
:10BD50000FF00C500E260D500F220E500F10D8A4CD
:10BD6000C2D7000E076E010E066EFAEC51F0460EB9
:10BD70007F6E7F0E016E000E026E010E036ED4EC1C
:10BD800054F07A0E0D6EC10E0C6E820EE82EFED7A8
:10BD90000C2EFCD70D2EFAD77A0E0D6EC10E0C6E3E
:10BDA000820EE82EFED70C2EFCD70D2EFAD7330EBE
:10BDB0000D6EBB0E0C6EE00EE82EFED70C2EFCD7DF
:10BDC0000D2EFAD7120009BE1200095003E1080433
:10BDD000D8A012000A500B10D8B41200470E7F6E84
:10BDE0007F0E016E000E026E010E036ED4EC54F055
:10BDF0007A0E0D6EC10E0C6E820EE82EFED70C2E42
:10BE0000FCD70D2EFAD77A0E0D6EC10E0C6E820E77
:10BE1000E82EFED70C2EFCD70D2EFAD7330E0D6E62
:10BE2000BB0E0C6EE00EE82EFED70C2EFCD70D2EAE
:10BE3000FAD7000E076E000E066EFAEC51F02ED007
:10BE4000440E7F6E7F0E016E000E026E010E036EB9
:10BE5000D4EC54F01206D8A013067A0E0D6EC10E63
:10BE60000C6E820EE82EFED70C2EFCD70D2EFAD7C4
:10BE70007A0E0D6EC10E0C6E820EE82EFED70C2EC1
:10BE8000FCD70D2EFAD77A0E0D6EC10E0C6E820EF7
:10BE9000E82EFED70C2EFCD70D2EFAD71250131019
:10BEA000D8A4CED7000E076E010E066EFAEC51F044
:10BEB000460E7F6E7F0E016E000E026E010E036E47
:10BEC000D4EC54F07A0E0D6EC10E0C6E820EE82E7C
:10BED000FED70C2EFCD70D2EFAD77A0E0D6EC10EA2
:10BEE0000C6E820EE82EFED70C2EFCD70D2EFAD744
:10BEF000330E0D6EBB0E0C6EE00EE82EFED70C2E30
:10BF0000FCD70D2EFAD7120009AE12000A500B1002
:10BF1000D8B4120004D0104A112A124A132A010E72
:10BF200012240C6E000E13200D6E0C500D10D8A4B0
:10BF3000F2D710041110D8A402D0450E0DD0020E75
:10BF400010181110D8A402D0510E06D0030E1018EC
:10BF50001110D8A402D0520E7F6E7F0E016E000E1B
:10BF6000026E010E036ED4EC54F01200000E1C6E33
:10BF7000000E1B6E000E1A6E000E196E000E166E6D
:10BF8000000E156E000E186E000E176E22EE97F062
:10BF900010EE0DF0070EDBCFE3FFE806FCE20FD05A
:10BFA000D8901B34D96E1C34DA6E0D0ED926000ED3
:10BFB000DA22000EDE6E000EDD6E1B4A1C2A1CBE4D
:10BFC000EFD71C5004E1040E1B5CD8A0E9D7000E8B
:10BFD0001C6E000E1B6E09500A10D8A455D0000E1E
:10BFE0001C6E000E1B6E1CBE03D01C5048E143D0DB
:10BFF000000E186E000E176E000E1A6E000E196EEF
:10C000001ABE06D01A5028E1030E195CD8B024D00D
:10C0100007501B24016E08501C20026E000E046E97
:10C02000060E036EB7EC51F0000E0B6E030E0C6E95
:10C0300001500B2602500C22D8901934D96E1A34B4
:10C04000DA6E0B50D9260C50DA22DE501726DD505E
:10C050001822194A1A2AD4D717501810D8B405D064
:10C06000000E166E010E156E0AD01B4A1C2A1CBE4D
:10C07000BFD71C5004E1040E1B5CD8A0B9D715C073
:10C0800007F016C008F012004C0E7F6E78EC51F0ED
:10C0900096C20DF00E6A4D0E7F6E78EC51F096C28E
:10C0A0000FF0106A4E0E7F6E78EC51F096C211F0D0
:10C0B000126A4F0E7F6E78EC51F096C213F0146A3C
:10C0C000000E1C6E000E1B6E1CBE08D01C5005E13D
:10C0D000040E1B5CD8B094D001D092D0000E186E24
:10C0E000000E176E000E1A6E000E196E1ABE06D0E4
:10C0F0001A5028E1030E195CD8B024D007501B2435
:10C10000016E08501C20026E000E046E060E036EB7
:10C11000B7EC51F0000E0B6E030E0C6E01500B26A7
:10C1200002500C22D8901934D96E1A34DA6E0B50A2
:10C13000D9260C50DA22DE501726DD501822194A73
:10C140001A2AD4D717501810D8B412D0D8901B344C
:10C15000D96E1C34DA6E0D0ED926000EDA22DE04FA
:10C16000DE10D8B405D0000E166E010E156E41D04B
:10C1700017501810D8B43DD0D8901B34D96E1C3449
:10C18000DA6E0D0ED926000EDA22DE04DE10D8A4F7
:10C1900030D0000E1A6E000E196E1ABE06D01A505C
:10C1A00028E1030E195CD8B024D007501B24016E7F
:10C1B00008501C20026E000E046E060E036EB7ECD3
:10C1C00051F0000E0B6E030E0C6E01500B26025048
:10C1D0000C22D8901934D96E1A34DA6E0B50D92645
:10C1E0000C50DA22000EDE6E000EDD6E194A1A2A9D
:10C1F000D4D71B4A1C2A1CBE71D71C5001E168D73A
:10C20000000E1C6E000E1B6E1CBE03D01C5059E1AC
:10C2100054D0D8901B34D96E1C34DA6EAF0ED926A8
:10C22000020EDA22DE50DE10D8A441D0000E1A6EC3
:10C23000000E196E1ABE06D01A5039E1040E195CB0
:10C24000D8B035D0D8901934D96E1A34DA6E0D0EB4
:10C25000D926000EDA22DE04DE10D8A425D019502B
:10C2600007240B6E1A5008200C6E010E0B26000ED0
:10C270000C22D8901B34D96E1C34DA6EAF0ED9263E
:10C28000020EDA220BC0DEFF0CC0DDFFD89019349D
:10C29000D96E1A34DA6E0D0ED926000EDA22000E8F
:10C2A000DE6E000EDD6E03D0194A1A2AC3D71B4A70
:10C2B0001C2A1CBEAED71C5004E1040E1B5CD8A087
:10C2C000A8D715C007F016C008F012000F0E216E97
:10C2D000000E226EFAD1250E2A18D8B404D02A50A6
:10C2E00048EC51F0F2D1000E296E000E286E000EBF
:10C2F000276E03D027840D4A0E2A0DC0F6FF0EC00C
:10C30000F7FFF86A0800F550300AD8B4F3D70DC02B
:10C31000F6FF0EC0F7FFF86A0800F55086EC51F002
:10C32000D8A0A6D0000E296E000E286E28C001F0FD
:10C3300029C002F0000E046E0A0E036EB7EC51F035
:10C3400001C028F002C029F0D00E196EFF0E1A6E3F
:10C350000DC0F6FF0EC0F7FFF86A0800F5501B6E1F
:10C360001C6A19501B261A501C221B5028261C50D0
:10C3700029220D4A0E2A0DC0F6FF0EC0F7FFF86AFB
:10C380000800F55086EC51F0D8A072D0CFD7278E98
:10C390008AD021C0D9FF22C0DAFFDECF1FF0DDCF67
:10C3A00020F0020E2126000E22221F502010D8A4B9
:10C3B00004D0AE0E1F6EFF0E206E000E246E000E17
:10C3C000236E02D0234A242A23501F24196E24509E
:10C3D00020201A6E19C0F6FF1AC0F7FF000EF86E83
:10C3E0000F0EF76403D00800F55005D0F6CFE9FF33
:10C3F000F7CFEAFFEF500009D8A4E4D72850235C18
:10C4000029502458D8B005D02350285E2450295AEA
:10C4100008D0000E296E000E286E03D0200E48ECC6
:10C4200051F02806D8A029062828F8E12928D8B4F0
:10C4300016D0F4D71FC0F6FF20C0F7FF000EF86E2D
:10C440000F0EF76403D00800F55005D0F6CFE9FFD2
:10C45000F7CFEAFFEF5048EC51F01F4A202A23069D
:10C46000D8A024062328E6E12428D8B42ED1E2D788
:10C470000DC0F6FF0EC0F7FF0D4A0E2AF86A08003D
:10C48000F5CF2AF02A50000AD8B41200640AD8B4B2
:10C490000AD00D0AD8B407D01A0AD8B47AD70B0A32
:10C4A000D8B475D712D127BE15D021C0D9FF22C06C
:10C4B000DAFFDECF25F0DDCF26F0020E2126000EBA
:10C4C000222226AE4AD0030E2712256C261ED8B093
:10C4D000262A43D021C0D9FF22C0DAFFDECF25F0C3
:10C4E000DDCF26F0020E2126000E222236D0010ECC
:10C4F0002A6E050E2A18D8B438D02A50020DA30E81
:10C50000F324F66EFB0EF420F76EF86A000EF822A4
:10C510000900F550255C0900F5502658D8A025D013
:10C520002A2AE7D7010E2A6E040E2A18D8B41DD085
:10C530002A50020DAD0EF324F66EFB0EF420F76EBA
:10C54000F86A000EF8220900F550255C0900F55044
:10C550002658D8A00AD02A2AE7D72750800B000AED
:10C56000D8B4C5D7800AD8B4DDD728502910D8B49C
:10C5700009D027C019F0030E1916D8B403D0280625
:10C58000D8A02906800E2ABE7F0E196E28502A5C7C
:10C590002950800A1958D8B007D02A50285E000EBA
:10C5A0002ABEFF0E295A04D0000E296E000E286EF6
:10C5B00027A414D027C019F0030E1916D8B403D03D
:10C5C0002D0E48EC51F028502910D8B41ED0300E52
:10C5D00048EC51F02806D8A02906F5D72850291094
:10C5E000D8B40AD0200E48EC51F02806D8A029066D
:10C5F00028502910D8A4F6D727C019F0030E191611
:10C60000D8B403D02D0E48EC51F02AC01EF059D0FA
:10C610001E50020DA30EF324F66EFB0EF420F76EEF
:10C62000F86A000EF8220900F5CF03F00A00F5CFF2
:10C6300004F025C001F026C002F07FEC52F001C0EA
:10C6400008F002C009F0000E0B6E0A0E0A6E38ECFC
:10C6500052F00850300F2A6E31D025C001F026C0AC
:10C6600002F01E50020DAD0EF324F66EFB0EF42008
:10C67000F76EF86A000EF8220900F5CF03F00A0001
:10C68000F5CF04F07FEC52F001500F0B1D6E1D50E2
:10C69000010D350EF324F66EFD0EF420F76EF86AE8
:10C6A000000EF8220800F5CF2AF008D02750800BA2
:10C6B000000AD8B4ADD7800AD8B4CFD72A5048ECF6
:10C6C00051F01E061E28D8A4F1D70DC0F6FF0EC0EB
:10C6D000F7FF0D4A0E2AF86A0800F5CF2AF02A5013
:10C6E000D8B41200F8D5010E3EEC51F0C30E2B6EFB
:10C6F000CD0EE82EFED72B2EFCD700F0800E3EECA0
:10C7000051F0410E2B6EEE0EE82EFED72B2EFCD7ED
:10C7100000D0500E0D6EFF0E0E6E66EC61F0C00E76
:10C720003EEC51F0A50E0D6EFE0E0E6E66EC61F045
:10C73000810EF66EFB0EF76E000EF86E20EE2EF0F8
:10C74000100E0900F5CFDEFFE806FBE2000E566E84
:10C75000000E556E000E526E000E516E000E546E9D
:10C76000000E536E23EEA0F010EE3FF00F0EDBCF65
:10C77000E3FFE806FCE298D2000E566E000E556EFE
:10C7800081A2FED781380F0B0F0B506E81B2FED7FE
:10C7900000F05050010D2E0EF324D96E000EF4203F
:10C7A000DA6EDF504F6E2A0E4F18D8A47DD2010EDC
:10C7B0003EEC51F0C30E2B6ECD0EE82EFED72B2E85
:10C7C000FCD700F0800E3EEC51F0410E2B6EEE0EC9
:10C7D000E82EFED72B2EFCD700D051505210D8A4F3
:10C7E0002ED0450E0D6EFF0E0E6E555052EC51F0D0
:10C7F0002B6E2B500F6E106A66EC61F0C00E3EEC93
:10C8000051F0AC0E0D6EFD0E0E6E552852EC51F02F
:10C810002B6E2B500F6E106A5550020F52EC51F0D8
:10C820002C6E2C50116E126A5550030F52EC51F0C1
:10C830002D6E2D50136E146A66EC61F033D25104E4
:10C840005210D8A432D0040E5526000E5622450EA2
:10C850000D6EFF0E0E6E555052EC51F02B6E2B509C
:10C860000F6E106A66EC61F0C00E3EEC51F0AC0E3B
:10C870000D6EFD0E0E6E552852EC51F02B6E2B50A6
:10C880000F6E106A5550020F52EC51F02C6E2C5066
:10C89000116E126A5550030F52EC51F02D6E2D504F
:10C8A000136E146A66EC61F0FDD1020E511852103D
:10C8B000D8A432D0080E5526000E5622450E0D6E15
:10C8C000FF0E0E6E555052EC51F02B6E2B500F6E2A
:10C8D000106A66EC61F0C00E3EEC51F0AC0E0D6ECD
:10C8E000FD0E0E6E552852EC51F02B6E2B500F6E34
:10C8F000106A5550020F52EC51F02C6E2C50116EF4
:10C90000126A5550030F52EC51F02D6E2D50136EDC
:10C91000146A66EC61F0C6D1030E51185210D8A407
:10C9200032D00C0E5526000E5622450E0D6EFF0E0F
:10C930000E6E555052EC51F02B6E2B500F6E106A4C
:10C9400066EC61F0C00E3EEC51F0AC0E0D6EFD0ECB
:10C950000E6E552852EC51F02B6E2B500F6E106A54
:10C960005550020F52EC51F02C6E2C50116E126A81
:10C970005550030F52EC51F02D6E2D50136E146A6A
:10C9800066EC61F08FD1040E51185210D8A432D049
:10C99000100E5526000E5622450E0D6EFF0E0E6E21
:10C9A000555052EC51F02B6E2B500F6E106A66EC06
:10C9B00061F0C00E3EEC51F0AC0E0D6EFD0E0E6E31
:10C9C000552852EC51F02B6E2B500F6E106A5550BB
:10C9D000020F52EC51F02C6E2C50116E126A555011
:10C9E000030F52EC51F02D6E2D50136E146A66EC4D
:10C9F00061F058D1050E51185210D8A432D0140E3F
:10CA00005526000E5622450E0D6EFF0E0E6E555029
:10CA100052EC51F02B6E2B500F6E106A66EC61F0E9
:10CA2000C00E3EEC51F0AC0E0D6EFD0E0E6E552894
:10CA300052EC51F02B6E2B500F6E106A5550020FB6
:10CA400052EC51F02C6E2C50116E126A5550030F9F
:10CA500052EC51F02D6E2D50136E146A66EC61F09D
:10CA600021D1060E51185210D8A432D0180E5526D6
:10CA7000000E5622450E0D6EFF0E0E6E555052ECF6
:10CA800051F02B6E2B500F6E106A66EC61F0C00EE9
:10CA90003EEC51F0AC0E0D6EFD0E0E6E552852ECB4
:10CAA00051F02B6E2B500F6E106A5550020F52EC46
:10CAB00051F02C6E2C50116E126A5550030F52EC2F
:10CAC00051F02D6E2D50136E146A66EC61F0EAD0B1
:10CAD000070E51185210D8A432D01C0E5526000E45
:10CAE0005622450E0D6EFF0E0E6E555052EC51F053
:10CAF0002B6E2B500F6E106A66EC61F0C00E3EEC90
:10CB000051F0AC0E0D6EFD0E0E6E552852EC51F02C
:10CB10002B6E2B500F6E106A5550020F52EC51F0D5
:10CB20002C6E2C50116E126A5550030F52EC51F0BE
:10CB30002D6E2D50136E146A66EC61F0B3D0080EA2
:10CB400051185210D8A43AD0200E5526000E562265
:10CB5000000E546E000E536E54BE06D0545012E1B7
:10CB6000040E535CD8B00ED03F0E5324D96E000E85
:10CB70005420DA6E5350552452EC51F0DF6E534A74
:10CB8000542AEAD7DD0E0D6EFD0E0E6E66EC61F0D6
:10CB9000C00E3EEC51F0220E0D6EFD0E0E6E3FC02B
:10CBA0000FF0106A40C011F0126A41C013F0146A0D
:10CBB00042C015F0166A66EC61F074D0090E511887
:10CBC0005210D8A434D0240E5526000E5622000E42
:10CBD000546E000E536E54BE06D0545012E1020E35
:10CBE000535CD8B00ED03F0E5324D96E000E5420A3
:10CBF000DA6E5350552452EC51F0DF6E534A542AEA
:10CC0000EAD7940E0D6EFF0E0E6E66EC61F0C00E4C
:10CC10003EEC51F0FD0E0D6EFD0E0E6E40C00FF09D
:10CC2000106A3FC011F0126A66EC61F03BD00A0E48
:10CC300051185210D8A436D0260E5526000E562272
:10CC4000000E546E000E536E54BE06D0545012E1C6
:10CC5000030E535CD8B00ED03F0E5324D96E000E95
:10CC60005420DA6E5350552452EC51F0DF6E534A83
:10CC7000542AEAD72D0E0D6EFE0E0E6E66EC61F094
:10CC8000C00E3EEC51F0460E0D6EFD0E0E6E3FC016
:10CC90000FF0106A40C011F0126A41C013F0146A1C
:10CCA00066EC61F0514A522A52BE66D5525005E1F7
:10CCB0000C0E515CD8B012005FD51200000E896EC8
:10CCC000000E8A6E000E8B6E000E8C6E000E8D6E46
:10CCD00092689368800E946E000E956E000E966EAC
:10CCE000000EC26E0F0EC16E59EC52F0A00E0E6E09
:10CCF000860E0F6E010E106E000E116EA8EC52F033
:10CD0000500E016E020E026E030E036E110E046EC3
:10CD1000040E056E180E066E000E95EC51F03AECFE
:10CD200053F0800E0F6E250E106E000E116E000E69
:10CD3000126EB4EC53F0F29E000E0201FD6F000E75
:10CD4000FC6F000EFA6F000EF96F000EF06F000E10
:10CD5000EF6F000EF66F000EF56F24EE80F010EE10
:10CD600080F05F0EDBCFE3FFE806FCE224EE00F08C
:10CD700011EE00F07F0EDBCFE3FFE806FCE222EECF
:10CD8000A7F012EEE7F0070EDBCFE3FFE806FCE2C8
:10CD900022EE88F010EE5FF0070EDBCFE3FFE8062F
:10CDA000FCE222EE80F010EE67F0070EDBCFE3FF2F
:10CDB000E806FCE222EE78F010EE6FF0070EDBCF13
:10CDC000E3FFE806FCE222EE70F010EE77F0070ECB
:10CDD000DBCFE3FFE806FCE222EE68F010EEE0F0C5
:10CDE000070EDBCFE3FFE806FCE222EE60F010EE78
:10CDF000E8F0070EDBCFE3FFE806FCE222EE58F096
:10CE000010EEF0F0070EDBCFE3FFE806FCE222EEC7
:10CE100050F010EEF8F0070EDBCFE3FFE806FCE27F
:10CE200022EE48F011EE80F0070EDBCFE3FFE806BC
:10CE3000FCE222EE40F011EE88F0070EDBCFE3FFBC
:10CE4000E806FCE222EE38F011EE90F0070EDBCFA0
:10CE5000E3FFE806FCE222EE30F011EE98F0070E58
:10CE6000DBCFE3FFE806FCE222EE28F011EEA0F0B3
:10CE7000070EDBCFE3FFE806FCE222EE20F011EE26
:10CE8000A8F0070EDBCFE3FFE806FCE222EE18F085
:10CE900011EEB0F0070EDBCFE3FFE806FCE222EE76
:10CEA00010F011EEB8F0070EDBCFE3FFE806FCE26E
:10CEB00022EE08F011EEC0F0070EDBCFE3FFE8062C
:10CEC000FCE222EE00F011EEC8F0070EDBCFE3FF2C
:10CED000E806FCE222EE9FF011EED0F0070EDBCF69
:10CEE000E3FFE806FCE223EEC0F011EED8F00F0EEF
:10CEF000DBCFE3FFE806FCE20C0E3EEC51F0190E2E
:10CF00000D6EFF0E0E6E66EC61F0660E586E760EBC
:10CF1000576EC10EE82EFED7572EFCD7582EFAD7E3
:10CF200000F0C00E3EEC51F0BC0E0D6EFF0E0E6E0A
:10CF300066EC61F0330E586EBB0E576EE00EE82EB5
:10CF4000FED7572EFCD7582EFAD7010E3EEC51F0E3
:10CF5000C30E576ECD0EE82EFED7572EFCD700F02D
:10CF6000800E3EEC51F0410E576EEE0EE82EFED7CD
:10CF7000572EFCD700D0800E3EEC51F0410E576E7C
:10CF8000EE0EE82EFED7572EFCD700D0010E3EEC59
:10CF900051F0C30E576ECD0EE82EFED7572EFCD79C
:10CFA00000F0000E076E000E18EC52F0BB0E0D6E76
:10CFB000FB0E0E6E66EC61F04D0E586E190E576E3C
:10CFC000500EE82EFED7572EFCD7582EFAD7000E5B
:10CFD0000201FD6F000EFC6FFDBF06D0FD5118E190
:10CFE000180EFC5DD8B014D0000E046E010E6AEC71
:10CFF00051F0060E586E130E576EAE0EE82EFED789
:10D00000572EFCD7582EFAD70201FC4BFD2BE4D744
:10D01000010E3EEC51F0C30E576ECD0EE82EFED73A
:10D02000572EFCD700F0800E3EEC51F0410E576EAB
:10D03000EE0EE82EFED7572EFCD700D0310E0D6E27
:10D04000FC0E0E6E66EC61F0000E0201FD6F000E2C
:10D05000FC6FFDBF06D0FD5118E1120EFC5DD8B08B
:10D0600014D0000E046E010E6AEC51F0060E586EDC
:10D07000130E576EAE0EE82EFED7572EFCD7582E45
:10D08000FAD70201FC4BFD2BE4D7010E3EEC51F028
:10D09000C30E576ECD0EE82EFED7572EFCD700F0EC
:10D0A000800E3EEC51F0410E576EEE0EE82EFED78C
:10D0B000572EFCD700D0E40E0D6EFB0E0E6E66EC04
:10D0C00061F0000E0201FD6F000EFC6FFDBF06D087
:10D0D000FD5118E1160EFC5DD8B014D0000E046EA0
:10D0E000010E6AEC51F0060E586E130E576EAE0E1E
:10D0F000E82EFED7572EFCD7582EFAD70201FC4B4C
:10D10000FD2BE4D7010E3EEC51F0C30E576ECD0E51
:10D11000E82EFED7572EFCD700F0800E3EEC51F0E3
:10D12000410E576EEE0EE82EFED7572EFCD700D0DC
:10D130000B0E0D6EFC0E0E6E66EC61F0000E020121
:10D14000FD6F000EFC6FFDBF06D0FD5118E1150EFE
:10D15000FC5DD8B014D0000E046E010E6AEC51F0E4
:10D16000060E586E130E576EAE0EE82EFED7572ED3
:10D17000FCD7582EFAD70201FC4BFD2BE4D7010E49
:10D180003EEC51F0C30E576ECD0EE82EFED7572E53
:10D19000FCD700F0800E3EEC51F0410E576EEE0EC3
:10D1A000E82EFED7572EFCD700D0E30E0D6EFC0EF6
:10D1B0000E6E66EC61F0000E0201FD6F000EFC6F5A
:10D1C000FDBF06D0FD5118E1060EFC5DD8B014D0AD
:10D1D000000E046E010E6AEC51F0060E586E130E2E
:10D1E000576EAE0EE82EFED7572EFCD7582EFAD724
:10D1F0000201FC4BFD2BE4D74D0E586E190E576EF5
:10D20000500EE82EFED7572EFCD7582EFAD7010E17
:10D210003EEC51F0C30E576ECD0EE82EFED7572EC2
:10D22000FCD700F0800E3EEC51F0410E576EEE0E32
:10D23000E82EFED7572EFCD700D0010E3EEC51F061
:10D24000C30E576ECD0EE82EFED7572EFCD700F03A
:10D25000800E3EEC51F0410E576EEE0EE82EFED7DA
:10D26000572EFCD700D0BD0E0D6EFD0E0E6E66EC77
:10D2700061F0C00E3EEC51F03D0E0D6EFE0E0E6ED6
:10D2800066EC61F081A2FED781380F0B0F0B020113
:10D29000F76F81B2FED700F00201F751010D920E37
:10D2A000F324F66EFB0EF420F76EF86A000EF822F7
:10D2B0000800F5CFFBF2D00EFB25F36FF46BFF0EE9
:10D2C000F423F305F411D8A406D0000E076E0F0E58
:10D2D00018EC52F034D0020E0201F319F411D8A464
:10D2E00006D0010E076E0F0E18EC52F028D0010E7A
:10D2F0003EEC51F0C30E576ECD0EE82EFED7572EE2
:10D30000FCD700F0C10E0D6EFE0E0E6E66EC61F0E5
:10D31000330E586EBB0E576EE00EE82EFED7572E1A
:10D32000FCD7582EFAD7010E3EEC51F0C30E576EC3
:10D33000CD0EE82EFED7572EFCD700F07ED7FC0E80
:10D340000D6EFF0E0E6E66EC61F01A0E586E5E0EDC
:10D35000576E6E0EE82EFED7572EFCD7582EFAD7F2
:10D3600000D00201F305F411D8A405D60C0E3EEC52
:10D3700051F00C0E3EEC51F0010E3EEC51F0C30E9C
:10D38000576ECD0EE82EFED7572EFCD700F0800E3C
:10D390003EEC51F0410E576EEE0EE82EFED7572EA2
:10D3A000FCD700D0010E3EEC51F0C30E576ECD0EEF
:10D3B000E82EFED7572EFCD700F0800E3EEC51F041
:10D3C000410E576EEE0EE82EFED7572EFCD700D03A
:10D3D000240E0D6EFF0E0E6E66EC61F0C00E3EEC7C
:10D3E00051F03A0E0D6EFF0E0E6E66EC61F081A2EA
:10D3F000FED781380F0B0F0B0201F76F81B2FED7FA
:10D4000000F00201F751010D920EF324F66EFB0EAF
:10D41000F420F76EF86A000EF8220800F5CFFBF250
:10D42000D00EFB250101F96FFA6BFF0EFA23F90507
:10D43000FA11D8A406D0000E076E0F0E18EC52F0A9
:10D4400034D0020E0101F919FA11D8A406D0010E48
:10D45000076E0F0E18EC52F028D0010E3EEC51F082
:10D46000C30E576ECD0EE82EFED7572EFCD700F018
:10D47000C10E0D6EFE0E0E6E66EC61F0330E586E30
:10D48000BB0E576EE00EE82EFED7572EFCD7582E57
:10D49000FAD7010E3EEC51F0C30E576ECD0EE82EBA
:10D4A000FED7572EFCD700F07DD7FC0E0D6EFF0E79
:10D4B0000E6E66EC61F0100E586E390E576E0E0E41
:10D4C000E82EFED7572EFCD7582EFAD7800E3EEC0A
:10D4D00051F0410E576EEE0EE82EFED7572EFCD7B8
:10D4E00000D0010E3EEC51F0C30E576ECD0EE82E6B
:10D4F000FED7572EFCD700F0000E0101FD6F000E85
:10D50000FC6F000E0201FD6F000EFC6FFDBF06D028
:10D51000FD5136E1100EFC5DD8B032D0000EFA6F2E
:10D52000000EF96FFABF06D0FA5127E1030EF95D3C
:10D53000D8B023D0FCC201F0FDC202F0000E046E90
:10D54000060E036EB7EC51F0800E576E000E586E4B
:10D550000150572602505822D8900201F935D96E51
:10D56000FA35DA6E5750D9265850DA22000EDE6EA0
:10D57000000EDD6EF94BFA2BD5D7FC4BFD2BC6D731
:10D58000010E0D6EFF0E0E6E66EC61F0C00E3EECED
:10D5900051F0790E0D6EFE0E0E6E66EC61F0660EA9
:10D5A000586E760E576EC10EE82EFED7572EFCD75A
:10D5B000582EFAD700F0800E3EEC51F0410E576E17
:10D5C000EE0EE82EFED7572EFCD700D0010E3EEC13
:10D5D00051F0C30E576ECD0EE82EFED7572EFCD756
:10D5E00000F00101F905FA11D8A496EF78F0800E49
:10D5F0003EEC51F0410E576EEE0EE82EFED7572E40
:10D60000FCD700D0010E3EEC51F0C30E576ECD0E8C
:10D61000E82EFED7572EFCD700F0CD0E0D6EFD0E76
:10D620000E6E66EC61F0C00E3EEC51F04C0E0D6ECD
:10D63000FE0E0E6E66EC61F081A2FED781380F0BF4
:10D640000F0B0201F76F81B2FED700F00201F75114
:10D65000010D920EF324F66EFB0EF420F76EF86ABD
:10D66000000EF8220800F5CFFBF2310EFB19D8A40A
:10D6700088D2800E3EEC51F0410E576EEE0EE82E31
:10D68000FED7572EFCD700D0010E3EEC51F0C30E52
:10D69000576ECD0EE82EFED7572EFCD700F0790E30
:10D6A0000D6EFD0E0E6E66EC61F0C00E3EEC51F09C
:10D6B0005B0E0D6EFE0E0E6E66EC61F00D0E586E7A
:10D6C000AF0E576EB60EE82EFED7572EFCD7582E4B
:10D6D000FAD700D081A2FED781380F0B0F0B0201C1
:10D6E000F76F81B2FED700F00201F751010D920EE3
:10D6F000F324F66EFB0EF420F76EF86A000EF822A3
:10D700000800F5CFFBF2800E3EEC51F0410E576E53
:10D71000EE0EE82EFED7572EFCD700D0010E3EECC1
:10D7200051F0C30E576ECD0EE82EFED7572EFCD704
:10D7300000F0D00E576EFF0E586E0201FB51596E6D
:10D740005A6A5750592658505A2259505A10D8B42C
:10D7500041D0D00E576EFF0E586EFB51596E5A6A6B
:10D760005750592658505A225A5034E1040E595CE9
:10D77000D8B030D0A60E0D6EFF0E0E6E66EC61F0C6
:10D78000C00E3EEC51F0650E0D6EFF0E0E6E66EC97
:10D7900061F04D0E586E190E576E500EE82EFED7E2
:10D7A000572EFCD7582EFAD7010E3EEC51F0C30E7F
:10D7B000576ECD0EE82EFED7572EFCD700F0800E08
:10D7C0003EEC51F0410E576EEE0EE82EFED7572E6E
:10D7D000FCD700D0310E0201FB19D8A46CD0820E08
:10D7E0000D6EFF0E0E6E66EC61F0C00E3EEC51F059
:10D7F0008B0E0D6EFF0E0E6E66EC61F04A0E02018E
:10D80000E66FE60E016E020E026E010E036ED4ECA0
:10D8100054F081A2FED781380F0B0F0B0201F76F76
:10D82000020E586E040E576EBA0EE82EFED7572E13
:10D83000FCD7582EFAD700D000F00201F751010DA5
:10D84000920EF324F66EFB0EF420F76EF86A000ECB
:10D85000F8220800F5CFFBF2410EFB19D8A40BD03B
:10D86000480EE66FE60E016E020E026E010E036EAA
:10D87000D4EC54F0CED7420E0201FB19D8A40BD041
:10D88000490EE66FE60E016E020E026E010E036E89
:10D89000D4EC54F0BED7440E0201FB19D8A4B9D77A
:10D8A0004B0EE66FE60E016E020E026E010E036E67
:10D8B000D4EC54F0DED6320E0201FB19D8A44DD0C0
:10D8C0002F0E0D6EFF0E0E6E66EC61F0C00E3EEC7C
:10D8D00051F0E90E0D6EFE0E0E6E66EC61F081A247
:10D8E000FED781380F0B0F0B0201F76F81B2FED705
:10D8F00000F00201F751010D920EF324F66EFB0EBB
:10D90000F420F76EF86A000EF8220800F5CFFBF25B
:10D91000310EFB19D8A40BD0420EE66FE60E016E55
:10D92000020E026E010E036ED4EC54F0D8D7320E04
:10D930000201FB19D8A40BD0430EE66FE60E016E70
:10D94000020E026E010E036ED4EC54F0C8D7440EE2
:10D950000201FB19D8B48DD6C2D7330EFB19D8A457
:10D96000E4D0F50E0D6EFE0E0E6E66EC61F0C00E8C
:10D970003EEC51F08A0E0D6EFD0E0E6E66EC61F0FF
:10D98000000E0101F86F000EF76F81A2FED78138FB
:10D990000F0B0F0B0201F76F00F00201F751010DA1
:10D9A000920EF324F66EFB0EF420F76EF86A000E6A
:10D9B000F8220800F5CFFBF2310EFB19D8A436D0BF
:10D9C0000101F705F811D8B41AD0000EF86F010E56
:10D9D000F76F380E0201E66FE60E016E020E026E60
:10D9E000010E036ED4EC54F0100E586E390E576EC3
:10D9F0000E0EE82EFED7572EFCD7582EFAD7310E32
:10DA00000201E66FE60E016E020E026E010E036E5B
:10DA1000D4EC54F00A0E586EA40E576E800EE82E09
:10DA2000FED7572EFCD7582EFAD7AFD7320E0201A9
:10DA3000FB19D8A437D0020E0101F719F811D8B498
:10DA40001AD0000EF86F020EF76F390E0201E66F62
:10DA5000E60E016E020E026E010E036ED4EC54F05F
:10DA6000100E586E390E576E0E0EE82EFED7572E3A
:10DA7000FCD7582EFAD7320E0201E66FE60E016E81
:10DA8000020E026E010E036ED4EC54F00B0E586EB3
:10DA9000260E576E5E0EE82EFED7572EFCD7582E58
:10DAA000FAD773D7330E0201FB19D8A438D0030E6E
:10DAB0000101F719F811D8B41AD0000EF86F030E4F
:10DAC000F76F410E0201E66FE60E016E020E026E66
:10DAD000010E036ED4EC54F0100E586E390E576ED2
:10DAE0000E0EE82EFED7572EFCD7582EFAD7330E3F
:10DAF0000201E66FE60E016E020E026E010E036E6B
:10DB0000D4EC54F0090E586EA00E576EC30EE82EDA
:10DB1000FED7572EFCD7582EFAD700F036D7440E32
:10DB20000201FB19D8B4A5D530D7420EFB19D8B4E1
:10DB30005ED5010E3EEC51F0C30E576ECD0EE82EB1
:10DB4000FED7572EFCD700F0800E3EEC51F0410E70
:10DB5000576EEE0EE82EFED7572EFCD700D0C10E22
:10DB60000D6EFE0E0E6E66EC61F04D0E586E190EC7
:10DB7000576E500EE82EFED7572EFCD7582EFAD7E8
:10DB800078D5320E0201FB19D8A490EF78F0800E00
:10DB90003EEC51F0410E576EEE0EE82EFED7572E9A
:10DBA000FCD700D0010E3EEC51F0C30E576ECD0EE7
:10DBB000E82EFED7572EFCD700F0540E0D6EFC0E4B
:10DBC0000E6EFCC10FF0FDC110F066EC61F0C00EEE
:10DBD0003EEC51F0940E0D6EFC0E0E6E66EC61F094
:10DBE0001A0E586E5E0E576E6E0EE82EFED7572E2A
:10DBF000FCD7582EFAD700D0000E0201FD6F000EA0
:10DC0000FC6FFDBF06D0FD5118E1080EFC5DD8B0D9
:10DC100014D0060E586E130E576EAE0EE82EFED7B9
:10DC2000572EFCD7582EFAD7000E046E020E6AEC5F
:10DC300051F00201FC4BFD2BE4D73D0E586EE10E76
:10DC4000576E400EE82EFED7572EFCD7582EFAD727
:10DC5000000E0201FD6F000EFC6FFDBF06D0FD51EE
:10DC600018E1080EFC5DD8B014D0060E586E130EE5
:10DC7000576EAE0EE82EFED7572EFCD7582EFAD789
:10DC8000010E046E020E6AEC51F00201FC4BFD2BFA
:10DC9000E4D7000E076E0B0E18EC52F00F0E3EECA0
:10DCA00051F081A2FED781380F0B0F0B0201F76FE5
:10DCB00081B2FED700F00201F751010D920EF3245C
:10DCC000F66EFB0EF420F76EF86A000EF8220800DC
:10DCD000F5CFFBF2D00EFB25F36FF46BFF0EF423B0
:10DCE000F4BF06D0F4510EE1050EF35DD8B00AD0B2
:10DCF000F4BF08D0F45103E1F305D8A003D0FB51E1
:10DD000048EC51F0100E586E390E576E0E0EE82E7C
:10DD1000FED7572EFCD7582EFAD70C0E3EEC51F0FA
:10DD2000F30E0201F31902E1F429D8A4AFD1010ED8
:10DD30003EEC51F0C30E576ECD0EE82EFED7572E97
:10DD4000FCD700F0800E3EEC51F0410E576EEE0E07
:10DD5000E82EFED7572EFCD700D06F0E0D6EFF0EAB
:10DD60000E6E66EC61F0C00E3EEC51F00D0E0D6EC5
:10DD7000FF0E0E6E66EC61F087EC57F0800E316E90
:10DD8000000E326E62EC5BF0C1EC58F085EC54F0A2
:10DD9000800E076E000E086E91EC5CF0DFEC51F027
:10DDA000FCEC56F0010E3EEC51F0C30E576ECD0E5A
:10DDB000E82EFED7572EFCD700F0800E3EEC51F037
:10DDC000410E576EEE0EE82EFED7572EFCD700D030
:10DDD0006F0E0D6EFF0E0E6E66EC61F0C00E3EEC27
:10DDE00051F09D0E0D6EFF0E0E6E66EC61F0990EF9
:10DDF000586E310E576EA20EE82EFED7572EFCD766
:10DE0000582EFAD700D0010E3EEC51F0C30E576EDB
:10DE1000CD0EE82EFED7572EFCD700F0800E3EEC3C
:10DE200051F0410E576EEE0EE82EFED7572EFCD75E
:10DE300000D0970E0D6EFE0E0E6E66EC61F0C00EF9
:10DE40003EEC51F04C0E0D6EFE0E0E6E66EC61F067
:10DE500081A2FED781380F0B0F0B0201F76F81B241
:10DE6000FED700F00201F751010D920EF324F66E79
:10DE7000FB0EF420F76EF86A000EF8220800F5CFCA
:10DE8000FBF2310EFB19D8B473EC63F0010E3EECDB
:10DE900051F0C30E576ECD0EE82EFED7572EFCD78D
:10DEA00000F0800E3EEC51F0410E576EEE0EE82E63
:10DEB000FED7572EFCD700D0B50E0D6EFF0E0E6E9E
:10DEC00066EC61F0C00E3EEC51F04C0E0D6EFE0E95
:10DED0000E6E66EC61F081A2FED781380F0B0F0B3E
:10DEE0000201F76F81B2FED700F00201F751010D78
:10DEF000920EF324F66EFB0EF420F76EF86A000E15
:10DF0000F8220800F5CFFBF2310EFB19D8A417D088
:10DF1000E4C257F0E5C258F0571E581E574A582A17
:10DF200057C008F058C009F0E4C20AF0E5C20BF08F
:10DF30001EEC5EF0000E0201E56F000EE46F000EB5
:10DF4000FD6F000EFC6FFDBF06D0FD5138E1100ED5
:10DF5000FC5DD8B034D0000EFA6F000EF96FFABF36
:10DF600006D0FA5129E1040EF95DD8B025D0FCC2E3
:10DF700057F0FDC258F0D89057365836D8905736DB
:10DF80005836D89057365836000E596E010E5A6ED4
:10DF90005750592658505A22D890F935D96EFA352B
:10DFA000DA6E5950D9265A50DA22000EDE6E000E73
:10DFB000DD6EF94BFA2BD3D7FC4BFD2BC4D7000EEB
:10DFC000FD6F000EFC6FFDBF06D0FD5136E1100E57
:10DFD000FC5DD8B032D0000EFA6F000EF96FFABFB8
:10DFE00006D0FA5127E1030EF95DD8B023D0FCC268
:10DFF00001F0FDC202F0000E046E060E036EB7ECD7
:10E0000051F0800E576E000E586E01505726025088
:10E010005822D8900201F935D96EFA35DA6E575088
:10E02000D9265850DA22000EDE6E000EDD6EF94B56
:10E03000FA2BD5D7FC4BFD2BC6D7000E0101FD6F87
:10E04000000EFC6F000EEC6F000EEB6F000E020175
:10E05000FD6F000EFC6F000EFA6F000EF96F010EDF
:10E060003EEC51F0C30E576ECD0EE82EFED7572E64
:10E07000FCD700F0800E3EEC51F0410E576EEE0ED4
:10E08000E82EFED7572EFCD700D081D50201F4BF71
:10E090006BEF77F0F45104E1F305D8A06BEF77F064
:10E0A000F4BF07D0F45103E1050EF35DD8B06BEF78
:10E0B00077F00101FDBF07D0FD5103E1080EFC5DC3
:10E0C000D8B06BEF77F0010E3EEC51F0C30E576EF7
:10E0D000CD0EE82EFED7572EFCD700F0800E3EEC7A
:10E0E00051F0410E576EEE0EE82EFED7572EFCD79C
:10E0F00000D0B20E0D6EFC0E0E6EF3C20FF0F4C225
:10E1000010F066EC61F0C00E3EEC51F0750E0D6E35
:10E11000FC0E0E6E66EC61F0240E586E830E576E88
:10E12000CF0EE82EFED7572EFCD7582EFAD700F088
:10E13000000E0201FD6F000EFC6FFDBF06D0FD5109
:10E1400018E1040EFC5DD8B014D0000E046E040E6D
:10E150006AEC51F0080E586E9D0E576E060EE82EB2
:10E16000FED7572EFCD7582EFAD70201FC4BFD2BB9
:10E17000E4D74D0E586E190E576E500EE82EFED78E
:10E18000572EFCD7582EFAD7010E3EEC51F0C30E95
:10E19000576ECD0EE82EFED7572EFCD700F0800E1E
:10E1A0003EEC51F0410E576EEE0EE82EFED7572E84
:10E1B000FCD700D0F3C257F0F4C258F0D8905736CD
:10E1C0005836D89057365836FC0E57240201F56F52
:10E1D000FF0E5820F66F000EFD6F000EFC6FFDBFA6
:10E1E0000AD0FD5106E1040EFC5DD8B060EF77F077
:10E1F00002D060EF77F0000E0101FF6F000EFE6F9E
:10E20000000EF06F000EEF6F000EEC6F000EEB6F64
:10E21000000E0201FA6F000EF96FFABF08D0FA5132
:10E2200005E1030EF95DD8B0DFD201D0DDD2F551A2
:10E23000FC25016EF651FD21026E000E046E060EE5
:10E24000036EB7EC51F0800E576E000E586E015001
:10E25000572602505822D8900201F935D96EFA3566
:10E26000DA6E5750D9265850DA22DE50DE10D8B474
:10E2700005D00101FC07D8A0FD07B6D20201F94B79
:10E28000FA2BFABFD4D7FA5101E1CBD7ADD2000EA9
:10E290000201FA6F000EF96F000EF06F000EEF6FC3
:10E2A000010E3EEC51F0C30E576ECD0EE82EFED798
:10E2B000572EFCD700F0800E3EEC51F0410E576E09
:10E2C000EE0EE82EFED7572EFCD700D05B0E0D6E5B
:10E2D000FF0E0E6E0201F551FC25576EF651FD2121
:10E2E000586E010E57240F6E000E5820106E66EC0B
:10E2F00061F0000E076E0A0E18EC52F00E0E3EECA6
:10E3000051F0E1D081A2FED781380F0B0F0B020133
:10E31000F76F81B2FED700F00201F751010D920EA6
:10E32000F324F66EFB0EF420F76EF86A000EF82266
:10E330000800F5CFFBF2D00E576EFF0E586EFB5162
:10E34000596E5A6A5750592658505A2259045A1031
:10E35000D8A402D0520E2CD0D00E576EFF0E586E9D
:10E360000201FB51596E5A6A5750592658505A2289
:10E37000020E59185A10D8A402D0460E19D0D00E49
:10E38000576EFF0E586E0201FB51596E5A6A575074
:10E39000592658505A22030E59185A10D8A402D0A0
:10E3A0004C0E06D02A0E0201FB19D8A4ABD72A0EB8
:10E3B0000101FB6F2A0EFB19D8B433D0FB5148EC96
:10E3C00051F0D00E576EFF0E586E0201FB51596E80
:10E3D0005A6A5750592658505A22FC51F5255B6EFF
:10E3E000FD51F6215C6ED8905B365C36D8905B367A
:10E3F0005C36D8905B365C36000E5D6E010E5E6E4C
:10E400005B505D265C505E22D890F935D96EFA35A6
:10E41000DA6E5D50D9265E50DA2259C0DEFF5AC04E
:10E42000DDFF2A0E0101FB19D8B432D049D0020118
:10E43000F951EF25576EFA51F021586ED8905736A2
:10E440005836FC51F525596EFD51F6215A6ED8907B
:10E4500059365A36D89059365A36D89059365A368F
:10E46000000E5B6E010E5C6E59505B265A505C22AA
:10E4700057505B24D96E58505C20DA6E000EDE6E69
:10E48000000EDD6E200E48EC51F00201EF4BF02B38
:10E49000F9C257F0FAC258F0571E581E574A582A68
:10E4A000040E5726000E582257500201EF5DF0511E
:10E4B000800A596E5850800A5958D8B00DD0B7D735
:10E4C0000201F94BFA2B0201FABF1CD7FA5104E101
:10E4D000040EF95DD8A016D70C0E3EEC51F0000EDC
:10E4E0000201F06F000EEF6FF0BF06D0F05134E183
:10E4F000040EEF5DD8B030D0F551FC25576EF651C3
:10E50000FD21586ED89057365836D8905736583621
:10E51000D89057365836000E596E010E5A6E575025
:10E52000592658505A22D890EF35D96EF035DA6E08
:10E530005950D9265A50DA22D890EF35E16EF0358D
:10E54000E26EE70EE126020EE222DECFE6FFDDCF2D
:10E55000E5FFEF4BF02BC8D7E70E016E020E026EFF
:10E560005F0E036E000E046E04EC53F001500101C7
:10E57000FE270250FF23E70E016E020E026E670EA9
:10E58000036E000E046E04EC53F001500101FE27EF
:10E590000250FF23E70E016E020E026E6F0E036E35
:10E5A000000E046E04EC53F001500101FE270250EE
:10E5B000FF23E70E016E020E026E770E036E000E51
:10E5C000046E04EC53F001500101FE270250FF23BA
:10E5D000E70E016E020E026EE00E036E000E046E78
:10E5E00004EC53F001500101FE270250FF23E70E17
:10E5F000016E020E026EE80E036E000E046E04EC55
:10E6000053F001500101FE270250FF23E70E016E77
:10E61000020E026EF00E036E000E046E04EC53F058
:10E6200001500101FE270250FF23E70E016E020E8A
:10E63000026EF80E036E000E046E04EC53F00150EF
:10E640000101FE270250FF23E70E016E020E026E4B
:10E65000800E036E010E046E04EC53F001500101B4
:10E66000FE270250FF23E70E016E020E026E880E97
:10E67000036E010E046E04EC53F001500101FE27FD
:10E680000250FF23E70E016E020E026E900E036E23
:10E69000010E046E04EC53F001500101FE270250FC
:10E6A000FF23E70E016E020E026E980E036E010E3E
:10E6B000046E04EC53F001500101FE270250FF23C9
:10E6C000E70E016E020E026EA00E036E010E046EC6
:10E6D00004EC53F001500101FE270250FF23E70E26
:10E6E000016E020E026EA80E036E010E046E04ECA3
:10E6F00053F001500101FE270250FF23E70E016E87
:10E70000020E026EB00E036E010E046E04EC53F0A6
:10E7100001500101FE270250FF23E70E016E020E99
:10E72000026EB80E036E010E046E04EC53F001503D
:10E730000101FE270250FF23E70E016E020E026E5A
:10E74000C00E036E010E046E04EC53F00150010183
:10E75000FE270250FF23E70E016E020E026EC80E66
:10E76000036E010E046E04EC53F001500101FE270C
:10E770000250FF23E70E016E020E026ED00E036EF2
:10E78000010E046E04EC53F001500101FE2702500B
:10E79000FF23FE51FF11D8A427D0800E3EEC51F08C
:10E7A000410E576EEE0EE82EFED7572EFCD700D046
:10E7B000010E3EEC51F0C30E576ECD0EE82EFED783
:10E7C000572EFCD700F0DC0E0D6EFE0E0E6E66ECC2
:10E7D00061F0330E586EBB0E576EE00EE82EFED77A
:10E7E000572EFCD7582EFAD70101FE51FF11D8A49D
:10E7F0000ED34DD5000E0201FA6F000EF96F000E18
:10E80000F06F000EEF6F000E0101EE6F000EED6F66
:10E81000000EF26F000EF16F000EF46F000EF36F3A
:10E82000000EF66F000EF56F800E3EEC51F0410EBB
:10E83000576EEE0EE82EFED7572EFCD700D0010EF5
:10E840003EEC51F0C30E576ECD0EE82EFED7572E7C
:10E85000FCD700F05B0E0D6EFF0E0E6E0201F5513F
:10E86000FC25576EF651FD21586E010E57240F6E90
:10E87000000E5820106E66EC61F0000E076E0A0E56
:10E8800018EC52F0000E0201FA6F000EF96FFABF99
:10E8900008D0FA5105E1040EF95DD8B0AED001D030
:10E8A000ACD0F551FC25576EF651FD21586ED8902D
:10E8B00057365836D89057365836D8905736583637
:10E8C000000E596E010E5A6E5750592658505A2252
:10E8D000D890F935D96EFA35DA6E5950D9265A5092
:10E8E000DA22DE50DE10D8A404D0200E48EC51F01D
:10E8F0007CD00201F551FC25576EF651FD21586E72
:10E90000D89057365836D89057365836D89057360C
:10E910005836000E596E010E5A6E575059265850EF
:10E920005A22D890F935D96EFA35DA6E5950D9266F
:10E930005A50DA22DE04DE10D8A404D0520E48EC7D
:10E9400051F053D00201F551FC25576EF651FD21CF
:10E95000586ED89057365836D89057365836D89083
:10E9600057365836000E596E010E5A6E57505926BA
:10E9700058505A22D890F935D96EFA35DA6E595076
:10E98000D9265A50DA22020EDE18DE10D8A404D09E
:10E99000460E48EC51F029D00201F551FC25576E86
:10E9A000F651FD21586ED89057365836D8905736C4
:10E9B0005836D89057365836000E596E010E5A6E9A
:10E9C0005750592658505A22D890F935D96EFA35F1
:10E9D000DA6E5950D9265A50DA22030EDE18DE10AC
:10E9E000D8A403D04C0E48EC51F00201F94BFA2B9D
:10E9F000FABF57D7FA5101E14ED7C00E3EEC51F0A5
:10EA0000790E0D6EFF0E0E6E66EC61F0010E076E54
:10EA10000A0E18EC52F00E0E3EEC51F0000E020100
:10EA2000FA6F000EF96FFABF08D0FA5105E1040E33
:10EA3000F95DD8B042D101D040D1F551FC25576ED7
:10EA4000F651FD21586ED89057365836D890573623
:10EA50005836D89057365836000E596E010E5A6EF9
:10EA60005750592658505A22D890F935D96EFA3550
:10EA7000DA6E5950D9265A50DA22DE50DE10D8B458
:10EA800007D029D0200E48EC51F00201EF4BF02BBB
:10EA9000F9C257F0FAC258F0571E581E574A582A62
:10EAA000040E5726000E58225750EF5DF051800A91
:10EAB000596E5850800A5958D8A0E4D70D0E586E98
:10EAC000AF0E576EB60EE82EFED7572EFCD7582E37
:10EAD000FAD700D0F2D081A2FED781380F0B0F0BEE
:10EAE0000201F76F81B2FED700F00201F751010D6C
:10EAF000920EF324F66EFB0EF420F76EF86A000E09
:10EB0000F8220800F5CFFBF2D00E576EFF0E586EBC
:10EB1000FB51596E5A6A5750592658505A2259502B
:10EB20005A10D8B4D8D7D00E576EFF0E586EFB517E
:10EB3000596E5A6A5750592658505A225A50CBE1AA
:10EB4000040E595CD8B0C7D7FB5148EC51F0060E03
:10EB5000586E130E576EAE0EE82EFED7572EFCD70A
:10EB6000582EFAD70201F551FC25576EF651FD21BA
:10EB7000586ED89057365836D89057365836D89061
:10EB800057365836000E596E010E5A6E5750592698
:10EB900058505A22D890F935D96EFA35DA6E595054
:10EBA000D9265A50DA22DE04DE10D8A411D0D00EB5
:10EBB000576EFF0E586EFB51596E5A6A57505926C0
:10EBC00058505A2259500101F1275A50F2236DD062
:10EBD0000201F551FC25576EF651FD21586ED89073
:10EBE00057365836D89057365836D8905736583604
:10EBF000000E596E010E5A6E5750592658505A221F
:10EC0000D890F935D96EFA35DA6E5950D9265A505E
:10EC1000DA22020EDE18DE10D8A411D0D00E576E04
:10EC2000FF0E586EFB51596E5A6A5750592658506C
:10EC30005A2259500101F3275A50F42336D00201C9
:10EC4000F551FC25576EF651FD21586ED890573678
:10EC50005836D89057365836D89057365836000E12
:10EC6000596E010E5A6E5750592658505A22D89054
:10EC7000F935D96EFA35DA6E5950D9265A50DA225A
:10EC8000030EDE18DE10D8A410D0D00E576EFF0E83
:10EC9000586EFB51596E5A6A5750592658505A228D
:10ECA00059500101F5275A50F6230201F94BFA2B6E
:10ECB000FABFC3D6FA5101E1BAD60C0E3EEC51F0C0
:10ECC0000101F351F125576EF451F221586EF551BF
:10ECD0005724ED6FF6515820EE6FEEBF06D0EE517F
:10ECE0001CE1050EED5DD8B018D0F2BF06D0F25190
:10ECF00014E1030EF15DD8B010D0F4BF06D0F4518A
:10ED00000CE1030EF35DD8B008D0F6BF2ED0F6515B
:10ED100004E1040EF55DD8A028D0800E3EEC51F041
:10ED2000410E576EEE0EE82EFED7572EFCD700D0C0
:10ED3000010E3EEC51F0C30E576ECD0EE82EFED7FD
:10ED4000572EFCD700F0880E0D6EFE0E0E6E66EC90
:10ED500061F0330E586EBB0E576EE00EE82EFED7F4
:10ED6000572EFCD7582EFAD752D00201F551FC2568
:10ED7000016EF651FD21026E000E046E060E036E4A
:10ED8000B7EC51F0800E0124D96E000E0220DA6E2D
:10ED9000F1C1DEFFF2C1DDFF0201F551FC25016E7C
:10EDA000F651FD21026E000E046E060E036EB7ECE6
:10EDB00051F0020E0126000E0222800E0124D96EAF
:10EDC000000E0220DA6EF3C1DEFFF4C1DDFF0201A6
:10EDD000F551FC25016EF651FD21026E000E046E08
:10EDE000060E036EB7EC51F0040E0126000E02224F
:10EDF000800E0124D96E000E0220DA6EF5C1DEFF0E
:10EE0000F6C1DDFF000E0101F06F010EEF6F010191
:10EE1000EF51F011D8B4EED4FE05FF11D8A40CD0F8
:10EE2000EF05F011D8A408D0ED51EE11D8B404D0FC
:10EE3000000EEC6F010EEB6FEB51FC27EC51FD2344
:10EE4000080EFC19FD11D8A431D0010E3EEC51F092
:10EE5000C30E576ECD0EE82EFED7572EFCD700F00E
:10EE6000800E3EEC51F0410E576EEE0EE82EFED7AE
:10EE7000572EFCD700D00D0E0D6EFE0E0E6E66ECFA
:10EE800061F0C00E3EEC51F0C20E0D6EFF0E0E6E24
:10EE900066EC61F04D0E586E190E576E500EE82E4E
:10EEA000FED7572EFCD7582EFAD70AD00201FC4BBA
:10EEB000FD2BFDBFFBEF70F0FD5102E1F3EF70F0B1
:10EEC000000E0201FD6F000EFC6F000EF66F000ECB
:10EED000F56FC7EF6DF0430E0201FB19D8A4B9D04E
:10EEE000000EFD6F000EFC6FFDBF06D0FD5138E136
:10EEF000100EFC5DD8B034D0000EFA6F000EF96F22
:10EF0000FABF06D0FA5129E1040EF95DD8B025D038
:10EF1000FCC257F0FDC258F0D89057365836D890FA
:10EF200057365836D89057365836000E596E010E5F
:10EF30005A6E5750592658505A22D890F935D96EE2
:10EF4000FA35DA6E5950D9265A50DA22000EDE6EA2
:10EF5000000EDD6EF94BFA2BD3D7FC4BFD2BC4D73B
:10EF6000000EFD6F000EFC6FFDBF06D0FD5136E1B7
:10EF7000100EFC5DD8B032D0000EFA6F000EF96FA3
:10EF8000FABF06D0FA5127E1030EF95DD8B023D0BD
:10EF9000FCC201F0FDC202F0000E046E060E036E0C
:10EFA000B7EC51F0800E576E000E586E0150572688
:10EFB00002505822D8900201F935D96EFA35DA6E2E
:10EFC0005750D9265850DA22000EDE6E000EDD6E44
:10EFD000F94BFA2BD5D7FC4BFD2BC6D7000E010100
:10EFE000FD6F000EFC6F000EEC6F000EEB6F000E5D
:10EFF0000201FD6F000EFC6F000EFA6F000EF96F3C
:10F00000010E3EEC51F0C30E576ECD0EE82EFED72A
:10F01000572EFCD700F0800E3EEC51F0410E576E9B
:10F02000EE0EE82EFED7572EFCD700D0680E0D6EE0
:10F03000FD0E0E6E66EC61F04D0E586E190E576E99
:10F04000500EE82EFED7572EFCD7582EFAD7C7EF12
:10F050006DF0420E0201FB19D8B4F7EF6AF0080E0A
:10F060000101FC19FD11D8A432D0010E3EEC51F083
:10F07000C30E576ECD0EE82EFED7572EFCD700F0EC
:10F08000800E3EEC51F0410E576EEE0EE82EFED78C
:10F09000572EFCD700D01D0E0D6EFE0E0E6E66ECC8
:10F0A00061F0C00E3EEC51F0C70E0D6EFF0E0E6EFD
:10F0B00066EC61F04D0E586E190E576E500EE82E2C
:10F0C000FED7572EFCD7582EFAD7C7EF6DF0010E9A
:10F0D0003EEC51F0C30E576ECD0EE82EFED7572EE4
:10F0E000FCD700F0800E3EEC51F0410E576EEE0E54
:10F0F000E82EFED7572EFCD700D0C10E0D6EFE0EA7
:10F100000E6E66EC61F04D0E586E190E576E500E75
:10F11000E82EFED7572EFCD7582EFAD7C7EF6DF042
:10F12000420E0201FB19D8A4F7EF6AF0020E0101AA
:10F13000F919FA11D8A4B9EF69F0010E3EEC51F0BB
:10F14000C30E576ECD0EE82EFED7572EFCD700F01B
:10F15000800E3EEC51F0410E576EEE0EE82EFED7BB
:10F16000572EFCD700D09B0E0D6EFD0E0E6E66EC7A
:10F1700061F0C00E3EEC51F0CF0E0D6EFE0E0E6E25
:10F1800066EC61F081A2FED781380F0B0F0B0201F4
:10F19000F76F81B2FED700F00201F751010D920E18
:10F1A000F324F66EFB0EF420F76EF86A000EF822D8
:10F1B0000800F5CFFBF2100E586E390E576E0E0E8A
:10F1C000E82EFED7572EFCD7582EFAD70C0E3EEC61
:10F1D00051F0430E0201FB19D8A4F9D3000EF86FC9
:10F1E000000EF26F000EF16F010E3EEC51F0C30EF7
:10F1F000576ECD0EE82EFED7572EFCD700F0800EAE
:10F200003EEC51F0410E576EEE0EE82EFED7572E13
:10F21000FCD700D0010E0D6EFF0E0E6E66EC61F095
:10F22000C00E3EEC51F06A0E0D6EFE0E0E6E66ECD8
:10F2300061F0660E586E760E576EC10EE82EFED740
:10F24000572EFCD7582EFAD700F0010E3EEC51F0A5
:10F25000C30E576ECD0EE82EFED7572EFCD700F00A
:10F26000800E3EEC51F0410E576EEE0EE82EFED7AA
:10F27000572EFCD700D0B30E0D6EFE0E0E6E66EC50
:10F2800061F0C00E3EEC51F0570E0D6EFD0E0E6E8D
:10F2900066EC61F0010E076E0F0E18EC52F00F0EC7
:10F2A0003EEC51F081A2FED781380F0B0F0B02010B
:10F2B000F76F81B2FED700F00201F751010D920EF7
:10F2C000F324F66EFB0EF420F76EF86A000EF822B7
:10F2D0000800F5CFFBF2D00EFB25F36FF46BFF0EA9
:10F2E000F423F4BF10D0F45103E1F305D8A00BD000
:10F2F000F4BF06D0F45107E1070EF35DD8B003D098
:10F30000FB5148EC51F0100E586E390E576E0E0E30
:10F31000E82EFED7572EFCD7582EFAD70C0E3EEC0F
:10F3200051F0420E0201FB19D8A40DD00D0E586EFB
:10F33000AF0E576EB60EE82EFED7572EFCD7582EBE
:10F34000FAD700D0FAD6010E3EEC51F0C30E576E3C
:10F35000CD0EE82EFED7572EFCD700F0800E3EECE7
:10F3600051F0410E576EEE0EE82EFED7572EFCD709
:10F3700000D0010E0D6EFF0E0E6E66EC61F0C00E39
:10F380003EEC51F0B30E0D6EFE0E0E6E66EC61F0AB
:10F39000660E586E760E576EC10EE82EFED7572EAB
:10F3A000FCD7582EFAD700F00201F305290DF3CF50
:10F3B000F8F2F8C2EAF1010E3EEC51F0C30E576EBE
:10F3C000CD0EE82EFED7572EFCD700F0800E3EEC77
:10F3D00051F0410E576EEE0EE82EFED7572EFCD799
:10F3E00000D0500E0D6EFF0E0E6E66EC61F0C00E7A
:10F3F0003EEC51F0A50E0D6EFE0E0E6E66EC61F049
:10F40000DBD2EAC1F8F281A2FED781380F0B0F0BD5
:10F410000201F76F81B2FED700F00201F751010D32
:10F42000920EF324F66EFB0EF420F76EF86A000ECF
:10F43000F8220800F5CFFBF22A0EFB19D8A491D2CE
:10F44000010E3EEC51F0C30E576ECD0EE82EFED7E6
:10F45000572EFCD700F0800E3EEC51F0410E576E57
:10F46000EE0EE82EFED7572EFCD700D00201F15148
:10F47000F211D8A431D0450E0D6EFF0E0E6EF8516C
:10F4800052EC51F0576E57500F6E106A66EC61F0F7
:10F49000C00E3EEC51F0AC0E0D6EFD0E0E6E020174
:10F4A000F82952EC51F0576E57500F6E106A020156
:10F4B000F851020F52EC51F0586E5850116E126A0A
:10F4C0000201F851030F52EC51F0596E5950136E6E
:10F4D000146A66EC61F041D20201F105F211D8A480
:10F4E00033D0040EF827450E0D6EFF0E0E6EF85148
:10F4F00052EC51F0576E57500F6E106A66EC61F087
:10F50000C00E3EEC51F0AC0E0D6EFD0E0E6E020103
:10F51000F82952EC51F0576E57500F6E106A0201E5
:10F52000F851020F52EC51F0586E5850116E126A99
:10F530000201F851030F52EC51F0596E5950136EFD
:10F54000146A66EC61F009D2020E0201F119F2119F
:10F55000D8A433D0080EF827450E0D6EFF0E0E6EA0
:10F56000F85152EC51F0576E57500F6E106A66EC1E
:10F5700061F0C00E3EEC51F0AC0E0D6EFD0E0E6E45
:10F580000201F82952EC51F0576E57500F6E106A75
:10F590000201F851020F52EC51F0586E5850116EA2
:10F5A000126A0201F851030F52EC51F0596E595092
:10F5B000136E146A66EC61F0D0D1030E0201F119EA
:10F5C000F211D8A433D00C0EF827450E0D6EFF0EA5
:10F5D0000E6EF85152EC51F0576E57500F6E106A84
:10F5E00066EC61F0C00E3EEC51F0AC0E0D6EFD0EFF
:10F5F0000E6E0201F82952EC51F0576E57500F6E03
:10F60000106A0201F851020F52EC51F0586E585036
:10F61000116E126A0201F851030F52EC51F0596E4B
:10F620005950136E146A66EC61F097D1040E020112
:10F63000F119F211D8A433D0100EF827450E0D6E33
:10F64000FF0E0E6EF85152EC51F0576E57500F6E80
:10F65000106A66EC61F0C00E3EEC51F0AC0E0D6E1F
:10F66000FD0E0E6E0201F82952EC51F0576E575004
:10F670000F6E106A0201F851020F52EC51F0586EF1
:10F680005850116E126A0201F851030F52EC51F0FA
:10F69000596E5950136E146A66EC61F05ED1050E16
:10F6A0000201F119F211D8A433D0140EF827450E37
:10F6B0000D6EFF0E0E6EF85152EC51F0576E575012
:10F6C0000F6E106A66EC61F0C00E3EEC51F0AC0EAD
:10F6D0000D6EFD0E0E6E0201F82952EC51F0576EC0
:10F6E00057500F6E106A0201F851020F52EC51F0A0
:10F6F000586E5850116E126A0201F851030F52EC05
:10F7000051F0596E5950136E146A66EC61F025D1B0
:10F71000060E0201F119F211D8A433D0180EF82701
:10F72000450E0D6EFF0E0E6EF85152EC51F0576EF5
:10F7300057500F6E106A66EC61F0C00E3EEC51F04F
:10F74000AC0E0D6EFD0E0E6E0201F82952EC51F05A
:10F75000576E57500F6E106A0201F851020F52ECAB
:10F7600051F0586E5850116E126A0201F851030F91
:10F7700052EC51F0596E5950136E146A66EC61F0F8
:10F78000ECD0070E0201F119F211D8A433D01C0EEF
:10F79000F827450E0D6EFF0E0E6EF85152EC51F02B
:10F7A000576E57500F6E106A66EC61F0C00E3EEC5B
:10F7B00051F0AC0E0D6EFD0E0E6E0201F82952ECEA
:10F7C00051F0576E57500F6E106A0201F851020F38
:10F7D00052EC51F0586E5850116E126A0201F851F5
:10F7E000030F52EC51F0596E5950136E146A66ECC7
:10F7F00061F0B3D0080E0201F119F211D8A439D08A
:10F80000200EF827000EFD6F000EFC6FFDBF06D026
:10F81000FD5113E1040EFC5DD8B00FD0D80EFC25CD
:10F82000D96E010EFD21DA6EF851FC2552EC51F033
:10F83000DF6E0201FC4BFD2BE9D7DD0E0D6EFD0ED8
:10F840000E6E66EC61F0C00E3EEC51F0220E0D6EB5
:10F85000FD0E0E6ED8C10FF0106AD9C111F0126AF8
:10F86000DAC113F0146ADBC115F0166A66EC61F0B8
:10F8700074D0090E0201F119F211D8A433D0240E6C
:10F88000F827000EFD6F000EFC6FFDBF06D0FD5186
:10F8900013E1020EFC5DD8B00FD0D80EFC25D96E56
:10F8A000010EFD21DA6EF851FC2552EC51F0DF6EAD
:10F8B0000201FC4BFD2BE9D7940E0D6EFF0E0E6E70
:10F8C00066EC61F0C00E3EEC51F0FD0E0D6EFD0ECB
:10F8D0000E6ED9C10FF0106AD8C111F0126A66EC31
:10F8E00061F03BD00A0E0201F119F211D8A435D013
:10F8F000260EF827000EFD6F000EFC6FFDBF06D030
:10F90000FD5113E1030EFC5DD8B00FD0D80EFC25DD
:10F91000D96E010EFD21DA6EF851FC2552EC51F042
:10F92000DF6E0201FC4BFD2BE9D72D0E0D6EFE0E96
:10F930000E6E66EC61F0C00E3EEC51F0ED0E0D6EF9
:10F94000FD0E0E6ED8C10FF0106AD9C111F0126A07
:10F95000DAC113F0146A66EC61F00201F14BF22B8C
:10F960002BD0420EFB19D8B439D4010E3EEC51F025
:10F97000C30E576ECD0EE82EFED7572EFCD700F0E3
:10F98000800E3EEC51F0410E576EEE0EE82EFED783
:10F99000572EFCD700D0C10E0D6EFE0E0E6E66EC1B
:10F9A00061F0330E586EBB0E576EE00EE82EFED798
:10F9B000572EFCD7582EFAD70201F2BF22D5F251AA
:10F9C00005E10C0EF15DD8B009D41BD507D4440E67
:10F9D000FB19D8A4A6D0010E3EEC51F0C30E576E11
:10F9E000CD0EE82EFED7572EFCD700F0800E3EEC51
:10F9F00051F0410E576EEE0EE82EFED7572EFCD773
:10FA000000D0000E0101E96F000EE86F7ED0A00E5D
:10FA10000E6E860E0F6E010E106E000E116EA8ECAB
:10FA200052F028EC51F0000E036ED00E026E30EC56
:10FA300051F0000E036E000E026E30EC51F02CEC13
:10FA400051F028EC51F0000E036ED10E026E30EC36
:10FA500051F0000E0201FD6F000EFC6FFDBF06D0DD
:10FA6000FD5112E1060EFC5DD8B00ED0B70EFC259C
:10FA7000D96E020EFD21DA6E000EA5EC51F0DF6E9C
:10FA80000201FC4BFD2BEAD7010EA5EC51F002015F
:10FA9000BD6F2CEC51F0800E3EEC51F0410E576ED4
:10FAA000EE0EE82EFED7572EFCD700D0FA0E0D6EC4
:10FAB000FC0E0E6EBDC20FF0106ABCC211F0126ACD
:10FAC000BBC213F0146A66EC61F0C00E3EEC51F05C
:10FAD0000E0E0D6EFD0E0E6EB9C20FF0106AB8C29A
:10FAE00011F0126AB7C213F0146A66EC61F0330EBB
:10FAF000586EBB0E576EE00EE82EFED7572EFCD781
:10FB0000582EFAD70101E84BE92BE9BF80D7E9511C
:10FB100006E10B0EE85DD8B09DEF78F078D79DEF49
:10FB200078F0420E0201FB19D8B4B9EF69F0010E6A
:10FB30003EEC51F0C30E576ECD0EE82EFED7572E79
:10FB4000FCD700F0800E3EEC51F0410E576EEE0EE9
:10FB5000E82EFED7572EFCD700D0C10E0D6EFE0E3C
:10FB60000E6E66EC61F04D0E586E190E576E500E0B
:10FB7000E82EFED7572EFCD7582EFAD79DEF78F0F7
:10FB8000003132334134353642373839432A302355
:10FB900044003132334134353642373839432A3024
:10FBA00023440001000A006400E80310270100104C
:10FBB00000000100100001021002284869212049BC
:10FBC00020616D2043657262657275732076312EF7
:10FBD000204920616D20616E206175746F6E6F6DBC
:10FBE0006F7573006F626F742064657369676E650B
:10FBF0006420746F207061636B6167652064616964
:10FC00006C7920646965746172790067652064614C
:10FC1000696C79206469657461727920666F6F64BC
:10FC20007320666F72206C61626F7261746F72799B
:10FC300000616D20616E206175746F6E6F6D6F7500
:10FC40007320726F626F742064657369676E656498
:10FC500020746F00456E74657220526F773A2020D1
:10FC6000202020204472617765727320557365648B
:10FC70003A20256400202020202020202020202041
:10FC80002020202020746F20736B697020647261C3
:10FC9000776572005061636B20466F6F643A202372
:10FCA00020202020436C65617220526F77733A20C8
:10FCB0004300526F772025642E2E2E2020202020F6
:10FCC0002020205072657373202A0025303264256D
:10FCD00073207C20253032643A253032643A253056
:10FCE0003264007320666F72206C61626F7261749F
:10FCF0006F727920726174732100446174652025EC
:10FD00003032782F253032782F2530327800546900
:10FD10006D6520253032783A253032783A253032F8
:10FD200078004425642C204425642C204425642C30
